:020000040000FA
:10000000380C0020793A00001D3B000091E7000009
:10001000B1E70000D1E7000011E80000F1E70000BF
:100020001D3B00001D3B00001D3B0000096100005E
:100030001D3B00001D3B0000377400001D3B00000D
:100040001D3B00001D3B00001D3B00001D3B000050
:100050001D3B00001D3B00001D3B00001D3B000040
:100060001D3B00001D3B00001D3B00001D3B000030
:100070001D3B00001D3B00001D3B00001D3B000020
:100080001D3B00001D3B00001D3B00001D3B000010
:100090001D3B00001D3B00001D3B00001D3B000000
:1000A0001D3B00001D3B00001D3B00001D3B0000F0
:1000B0001D3B00001D3B00001D3B00001D3B0000E0
:1000C0001D3B00001D3B00001D3B00001D3B0000D0
:1000D0001D3B00001D3B00001D3B00001D3B0000C0
:1000E0001D3B00001D3B00001D3B00001D3B0000B0
:1000F0001D3B00001D3B00001D3B00001D3B0000A0
:100100001D3B00001D3B00001D3B00001D3B00008F
:100110001D3B00001D3B00001D3B00001D3B00007F
:100120001D3B00001D3B00001D3B00001D3B00006F
:100130001D3B00001D3B00001D3B00001D3B00005F
:100140004B750000C56300001D3B00001D3B000017
:100150001D3B00001D3B00001D3B00001D3B00003F
:100160002B0401001D3B00001D3B00001D3B000057
:100170001D3B00001D3B00001D3B00001D3B00001F
:100180001D3B00001D3B00001D3B00001D3B00000F
:100190001D3B00001D3B00001D3B00001D3B0000FF
:1001A0001D3B00001D3B00001D3B00001D3B0000EF
:1001B0001D3B00001D3B00001D3B00001D3B0000DF
:1001C0001D3B00001D3B00001D3B00001D3B0000CF
:1001D0001D3B00001D3B00001D3B00001D3B0000BF
:1001E0001D3B00001D3B00001D3B00001D3B0000AF
:1001F0001D3B00001D3B00001D3B00001D3B00009F
:100200001D3B00001D3B00001D3B00001D3B00008E
:100210001D3B00001D3B00001D3B00001D3B00007E
:100220001D3B00001D3B00001D3B00001D3B00006E
:100230001D3B00001D3B00001D3B00001D3B00005E
:10024000677500001D3B00001D3B00001D3B0000CA
:100250001D3B00001D3B00001D3B00001D3B00003E
:100260001D3B00001D3B00001D3B00001D3B00002E
:100270001D3B00001D3B00001D3B00001D3B00001E
:100280001D3B00001D3B00001D3B00001D3B00000E
:100290001D3B00001D3B00001D3B00001D3B0000FE
:1002A0001D3B00001D3B00001D3B00001D3B0000EE
:1002B0001D3B00001D3B00001D3B00001D3B0000DE
:1002C0001D3B00001D3B00001D3B00001D3B0000CE
:1002D0001D3B00001D3B00001D3B00001D3B0000BE
:1002E0001D3B00001D3B00001D3B00001D3B0000AE
:1002F0001D3B00001D3B00001D3B00001D3B00009E
:100300001D3B00001D3B00001D3B00001D3B00008D
:100310001D3B00001D3B00001D3B00001D3B00007D
:100320001D3B00001D3B00001D3B00001D3B00006D
:100330001D3B00001D3B00001D3B00001D3B00005D
:10034000837500001D3B00001D3B00001D3B0000AD
:100350001D3B00001D3B00001D3B00001D3B00003D
:100360001D3B00001D3B00001D3B00001D3B00002D
:100370001D3B00001D3B00001D3B00001D3B00001D
:100380001D3B00001D3B00001D3B00001D3B00000D
:100390001D3B00001D3B00001D3B00001D3B0000FD
:1003A0001D3B00001D3B00001D3B00001D3B0000ED
:1003B0001D3B00001D3B00001D3B00001D3B0000DD
:1003C0001D3B00001D3B00001D3B00001D3B0000CD
:1003D0001D3B00001D3B00001D3B00001D3B0000BD
:1003E0001D3B00001D3B00001D3B00001D3B0000AD
:1003F0001D3B00001D3B00001D3B00001D3B00009D
:100400001D3B00001D3B00001D3B00001D3B00008C
:100410001D3B00001D3B00001D3B00001D3B00007C
:100420001D3B00001D3B00001D3B00001D3B00006C
:100430001D3B00001D3B00001D3B00001D3B00005C
:100440009F7500001D3B00001D3B00001D3B000090
:100450001D3B00001D3B00001D3B00001D3B00003C
:100460001D3B00001D3B00001D3B00001D3B00002C
:080470001D3B00001D3B0000D4
:100480007FE97FE907F04EBD7FE97FE907F05CBDBA
:100490007FE97FE907F08EBD7FE97FE907F07CBD4A
:1004A0007FE97FE907F062BD000000000000000066
:1004B000000000000000000000000000000000003C
:1004C00000015F5F02000000FE0B00009961000068
:1004D0000004000000000000000000000000000018
:1004E00000000000000000000100FFC3000000C485
:1004F00060C600200000000001015F5F03010000F2
:100500001F0100006D10000000200000000000002E
:1005100001000000010000000000000000000000D9
:100520000000000000000000F8490020000000006A
:1005300070000000C03B010080000000000F0000C0
:1005400001000000510700000100000001015F5F91
:10055000000100001F0000006937000000070000D4
:100560000000000003000000010000000000000087
:1005700000000000000000000000000050160020F5
:10058000000000008000000070000000400000003B
:10059000CB3B0100600000000107000001000000EB
:1005A000012D00000100000001015F5F010100005A
:1005B0001F0100005D1A0000001000000000000094
:1005C000000000000100000000000000000000002A
:1005D0000000000000000000F8690020000000009A
:1005E000E93B010070000000020F00000100000064
:1005F000490A00000100000001015F5F04010000E2
:100600001F010000492C0000000500000000000050
:1006100000000000010000000000000000000000D9
:100620000000000000000000F87900200000000039
:100630000E3C010040000000050700000100000022
:08064000FB290000010000008D
:1006600038B500250648294600F58054D4F8002402
:10067000C4F804540EF035F9C4F8005438BD00BF76
:10068000F87E0020024BD3F804340360002070474A
:10069000F88E002037B511460022CDE900224268CD
:1006A0000346402A04684BD1228D150A032D17D02A
:1006B000012D37D024482468D0F80404AA1ECDE9BF
:1006C0000040082A36D8DFE802F0050B0F14191E87
:1006D000232830006A46184601F0F9F803B030BD0F
:1006E000184600F0A5FDF9E76A46184600F061FEDD
:1006F000F4E76A46184600F0C7FCEFE76A4618467A
:1007000000F013FFEAE76A46184601F016F8E5E73D
:100710006A46184601F014F8E0E76A46184601F008
:1007200012F8DBE701F08EF9D8E76A46184601F0C7
:1007300092F9D3E705480EF05EF96FF08500CDE73A
:100740006FF08000CAE700BFF88E00207C2C00000C
:100750002DE9F04F05680446A3B0002D40F0B580A8
:100760002022294602A80EF0BCF812AF202229460A
:100770000AA80EF0B6F84022294638460EF0B1F825
:10078000E26904F11C039846B2B10426E26A04F15E
:100790002C03EAB10425EEB96FF08306304623B08E
:1007A000BDE8F08F002EF1D053F8041D3246013E13
:1007B0000029F7D01646E9E70326F5E7002DEAD031
:1007C00053F8041D2A46013D0029F7D01546E2E7FB
:1007D0000325F5E740233A460021606807F01EFC38
:1007E0004028D9D10121DFF8E8A0CDE9027004F159
:1007F000100902AF0AF5805B8E4221D10AAF38465C
:100800000021344A08EB8509D2F80034A2F5805A59
:10081000C84533D109B1C2F80034A3683146C2F8E3
:10082000043402A82B460AAAFFF734FF4FF0000851
:100830000646454507F108073ED1FFF711FFADE732
:1008400059F8043F1A1D21D8DBF800C4D81C20F049
:100850000300CCF5A052904218D860440CEB0A0279
:10086000CBF800046068CDE9001207F0D7FB019ACD
:100870000099F860013147F8082FBDE758F804EFF8
:100880001EF1040F07D909B1C2F80034FFF7E8FEE2
:100890006FF08C0682E70EF1030C2CF0030CC3F50D
:1008A000A05BDC4500F10800EDD803EB0A0140E94C
:1008B000021E63440121ABE7414657E90223606809
:1008C00007F0B6FB08F10108B3E76FF0850665E7AE
:1008D000F87E0020F88E002008B54FF43152002138
:1008E00002480DF0FEFF002008BD00BFB81D00202B
:1008F0000023F7B50C6807460E461546019314BB56
:1009000022B3146001A8FFF7BDFEA8B94FF4B16C83
:10091000104A0CFB04F3D158A646013471B94FF0CC
:10092000010E02EB030C42F803E00199103313446B
:10093000CCE9011734602B6003B0F0BD082CE8D17E
:100940006FF08400F8E76FF08800F5E76FF086003D
:10095000F2E700BFB81D00200023F7B5056801933A
:10096000013D072D036004D96FF08604204603B0D3
:10097000F0BD01A8FFF786FE04460028F6D14FF42B
:10098000B1635D430A4E73597719012BECD17A6834
:10099000019B9A42E8D105F110004FF4AF62214665
:1009A00030440DF09EFFC7E901447451DEE700BFFB
:1009B000B81D0020002373B54C1E072C06461546B3
:1009C000019303D96FF0880002B070BDC2B101A8D5
:1009D000FFF758FE0028F7D14FF4B16202FB04F193
:1009E000094B5C585A18012CECD19468B442E9D1F7
:1009F0005468019A9442E5D1103119442960E3E723
:100A00006FF08600E0E700BFB81D002010B5044C71
:100A10000F22204603490DF03FFF204610BD00BFC6
:100A2000F0BB0020A12C000008B54FF4025104488F
:100A300007F044FC034807F007FD002008BD00BF95
:100A4000709B0020F7E900006FF47A72F0B503683C
:100A5000044613448DB0032B7CD8DFE803F0022852
:100A60004C6B0369082B02D06FF080055FE085694D
:100A7000042DF9D10021406808AA07F0CFFA082810
:100A8000F2D12B460221606806AA07F0C7FA0428B3
:100A9000EAD16168314A63691160069ACDE9003292
:100AA000DDE90823A06800F021F905463FE003696D
:100AB000082BD9D14569042DD6D10021406808AA58
:100AC00007F0ACFA0828CFD12B460121606806AAAE
:100AD00007F0A4FA0428C7D16168204A236A11608C
:100AE00005AACDE90132069B0093A068DDE9082341
:100AF00000F078F9D9E70369082BB5D1076A0C2F04
:100B0000B2D10021406806AA07F088FA0828ABD1C4
:100B1000DDE9062308AE0096A06800F0EDF9054671
:100B200028B901463B463246606807F081FA2846FC
:100B30000DB0F0BD0369082B96D10021406808AACA
:100B400007F06CFA08288FD1DDE90823A06800F0CF
:100B5000E5F9AAE76FF08505E9E700BF00930020FB
:100B6000024603480B460068012107F057BA00BF50
:100B700000930020024603480B460068002107F05E
:100B800057BA00BF009300201FB550EA0103144676
:100B90001BD0CDE90120042203910E480DEB020188
:100BA0000DF07AFE08220C480DEB02010DF074FEE8
:100BB0000A4B0B480B4AB4F5807F08BF184605491D
:100BC00004B0BDE8104001F0A8B86FF0860004B092
:100BD00010BD00BF02C4002006C400200493002002
:100BE0001C930020349B002030B5384B85B09D6AA3
:100BF000A8470369042B03D06FF0800005B030BD17
:100C0000A847334C8368A360A847037D01A82376D7
:100C100005F026F90028EFD1019BA26863609DF8DA
:100C20000C3021465343029A2A48B2FBF3F2228247
:100C3000294AE36001F023F80028DFD1254801F0BC
:100C400050F8002834D1A8470369042BD4D1A84711
:100C5000224C8368A360A847037D01A8237605F092
:100C6000F1F80028C8D1019BA26863609DF80C30A0
:100C700021465343029A1A48B2FBF3F22282164AE3
:100C8000E36000F0FCFF0028B8D1154801F029F816
:100C90000028B3D013480DF0AEFE114801F03BF828
:100CA0000028ABD10E4805B0BDE8304001F019B8BE
:100CB0000D480DF0A0FE074801F02DF800289DD149
:100CC000044801F00EF80028BDD097E7787B0000BB
:100CD0009C1D00201C9300205C2C0000801D002027
:100CE00004930020D62C0000B02C000019462DE9FA
:100CF000F04F52EA010385B00646DDE90E54104676
:100D000032D0072C5CD8B6F5807F02D0B5F5006FE5
:100D100059D83246FFF738FF30B92C4B9B68D907BA
:100D200005D56FF0840021E010F18C0F1ED1002753
:100D3000DFF8988044F44034DFF89490DFF894B002
:100D4000DFF894A0C8F80450C8F80840B5F5006F63
:100D50002C4628BF4FF4006448462146FFF700FFA9
:100D6000B6F5807F29D027B16FF0860005B0BDE8C9
:100D7000F08F4FF400630122CDE9004ACDE9023241
:100D800016494B460C22114800F06AFE0028EDD1AE
:100D900053461348CDE900730C4A23460F4900F02F
:100DA000DEFF0028E2D1D8F808302D1B23F44033B1
:100DB000C8F808302744C9D1D8E74B465846E9E778
:100DC0006FF08500D2E76FF08900CFE7349B0020F9
:100DD000349300200493002002BC002002C40020B1
:100DE0001C93002019462DE9F04F52EA010385B00B
:100DF0008046DDE90E6A1046DDF8409005D16FF0BF
:100E00008604204605B0BDE8F08FB8F5807F07D096
:100E100006EB0A03B3F5006F02D96FF08904F0E71F
:100E20004246FFF7B1FE04460028EAD12C4F3D6848
:100E3000B542E4D3AD1B554528BF5546B8F5807F74
:100E4000C9F8005021D1DFF89C80DFF89CA0DFF8C2
:100E50009CB0B5F5006F2F4628BF4FF400673346AE
:100E60003A4651465846CDF8008001F091F820B13D
:100E70000023C9F800300446C3E739464046FFF76F
:100E800079FEED1B3E44E4D1BBE77B68B3F5006F10
:100E9000C3D8DFF85CA00346CDF800A03A68124939
:100EA000144801F075F810B1C9F80040E3E74FF4B9
:100EB0000063DFF8308003940293CDF804803B6830
:100EC0000C22009338465346074900F0C9FD00281C
:100ED000EAD1294608EB0600FFF74CFE91E700BF78
:100EE000349B00203493002002C40020049300208F
:100EF00002BC00201C93002038B505461946104658
:100F00002A46049CFFF740FE28B9034B1A689B68E9
:100F1000C4E90022A36038BD349B002010B504460C
:100F2000194610462246FFF72FFE80B9084B9B68F2
:100F3000DB070AD40748084B0849B4F5807F08BF8F
:100F40001846BDE8104001F013B86FF0840010BDE2
:100F5000349B00201C9300200493002002C4002036
:100F6000F8B51D46036804465B680E461746984769
:100F70000B4BC0F3410013F8202063680699E0682A
:100F80001D442368B1FBF2F200FB065039469B6911
:100F900098470028B4BF6FF091000020F8BD00BF53
:100FA000702C00002DE9F3470A9C07469146002C5F
:100FB00057D0C26840681E183B6802FB01665B6838
:100FC0009847294BC0F3410013F82080B6FBF8FA8C
:100FD00008FB0AFA564524D03B68012250465B695B
:100FE00001A99847002804DA6FF0910002B0BDE82B
:100FF000F087A6EB0A03E218904501AA02EB030171
:1010000004D9224648460DF047FC08E0A8EB060547
:1010100055442A4648460DF03FFC641B02D100208F
:10102000E4E700253B68A0455B690DD8B4FBF8FAFE
:1010300009EB05015246A81998470028D4DB08FBA4
:101040000AF2A41AEBD015443B6801225B6901A99E
:10105000701998470028C7DB224601A909EB050053
:10106000D1E72046C2E700BF702C000008B5FFF7AB
:1010700033FC40B9FFF7CAFCFFF7D6FC18B9BDE84E
:10108000084008F017BC08BD2DE9F04F4FF00008EC
:10109000D0F8009089B0B9F828A006AF06460D46F2
:1010A000D2E900213846CDF8148000F0CFFCBAF523
:1010B000A06F15D12B1D03936B6802932B680193CE
:1010C000F3680093B368D9F8042097E8030008F0A8
:1010D00025FB0446C0B90024204609B0BDE8F08FC6
:1010E00040F201539A4512D12B1D03936B68029372
:1010F0002B680193F3680093B368D9F8042097E84C
:10110000030008F06DF8E4E7C5F80480E4E7AAF20C
:10111000025B1FFA8BF3012B1FD8D5F80080B8F1C2
:10112000000F02D16FF08004D6E76B68032BF9D96A
:10113000D9F8083041460120C8F8003005AAFFF769
:10114000D7FB04460028C7D1BBF1060F6DD8DFE8F6
:101150000BF0384725314F5A67000120D9F80810A5
:1011600005AAFFF727FCAAF20753012B044603D96F
:101170000028B1D18046E7E7D5F80080B8F1000F2C
:10118000D0D06B68032BCDD9D9F80830C8F800301F
:101190000028D9D0BAF5A16F9DD09DE705982B1DE9
:1011A000D5E900120EF0B4FC0446002893D00023C9
:1011B0006B6091E70598D6E902120EF074F90446C7
:1011C0008AE7D9F80430059897E806000EF053F93D
:1011D000044600283FF47FAF4046FFF7BDFB7BE7A6
:1011E000D9F80430059897E806000EF050F9EFE7BB
:1011F0002B1D01936B68059800932B68D6E90212AA
:101200000EF06FF9D0E7059805F10C03D5E902124D
:101210000EF081F904460028DED00023EB605BE786
:1012200005980EF01AF90446D6E76FF0850453E7E7
:101230002DE9F0430026056885B0B5F828900746EB
:10124000B9F5407F8846029612D10B1D01934B6879
:1012500000930B68D0E9021268680DF096FF04460F
:10126000002858D0C8F80460204605B0BDE8F083D7
:1012700040F20133994509D1436900938168D0E96F
:10128000032368680DF092FF0446EDE740F2023355
:10129000994519D10E6816B96FF08004E4E74B68E0
:1012A000032BF9D9AB6831460320336002AAFFF75C
:1012B0001FFB04460028D7D1696802980DF0F4FEA0
:1012C000044640B330466EE00320A96802AAFFF747
:1012D00071FB6FF441734B44022B04460BD9002879
:1012E000C2D10646A9F20333042B5FD8DFE803F02E
:1012F00015371B283200D8F80060002ECCD0D8F863
:101300000430032BC8D9AB6833600028EAD040F220
:1013100007339945A8D10024A6E70298D7E902121D
:101320000DF0E2FEB0E7029808F10C03D8E90212D2
:101330000DF0EEFE044658B10023C8F80C3093E7D8
:101340000298D7E902120DF0F4FE044600288BD172
:101350000024B7E702980DF09CFE0446B2E7002394
:10136000D8F800500393002D96D0D8F80430032B02
:1013700092D9BB68002B8FD0FA68032A8CD91B68DE
:10138000294603202B6003AAFFF7B2FA044600287F
:101390007FF46AAFDDE902010DF031FF0446002859
:1013A0003FF462AF2846FFF7D7FA5DE76FF0850498
:1013B0005AE72DE9F04F0025D0F8009089B0B9F830
:1013C00028A00DF1180807460E46D2E90021404634
:1013D000059500F03BFBBAF5806F16D1331D0393E2
:1013E0007368029333680193FB680093BB68D9F874
:1013F000042098E803000DF0F1FF0446002856D0C1
:101400007560204609B0BDE8F08F40F201439A456F
:101410000ED17B6902933B690193FB680093BB6823
:10142000D9F8042098E803000DF0EDFF0446E8E742
:10143000AAF2024B1FFA8BF3012B1AD8356815B9A3
:101440006FF08004DDE77368032BF9D9D9F8083011
:10145000294602202B6005AAFFF74AFA0446002815
:10146000CFD1BBF1050F5DD8DFE80BF02331393F59
:101470004D570220D9F8081005AAFFF79BFAAAF2E7
:101480000543022B044603D90028BAD10546E8E7F4
:101490003568002DD4D07368032BD1D9D9F8083022
:1014A0002B600028DDD040F207439A45A9D10024E3
:1014B000A7E7D9F80430059898E806000DF00BFF6F
:1014C00004460028F3D02846FFF746FA99E7D9F8F2
:1014D0000430059898E806000DF009FFF0E705983C
:1014E000D7E902120DF00FFFA0E7059806F10C03F3
:1014F000D6E902120DF01BFF044608B90024E2E70A
:101500000023F3607DE70598D7E902120DF046FF4E
:10151000044600287FF475AFF0E705980DF081FED2
:101520000446D0E76FF085046BE72DE9F04F4FF0EC
:10153000000907688DB0B7F828A00DF12808064605
:101540000D46D2E900214046CDF8249000F07EFA05
:10155000BAF5C06F1FD12B1D07936B6806932B68DC
:101560000593F3680493B368039373690293336933
:1015700001937B6A00937A6807F1140398E80300EB
:101580000DF0E5FF0446002868D0C5F80490204619
:101590000DB0BDE8F08F40F201639A4517D12B1DC5
:1015A00007936B6806932B680593F3680493B368FD
:1015B000039373690293336901937B6A00937A689A
:1015C00007F1140398E803000EF009F8DAE7AAF22D
:1015D000026B1FFA8BF3012B20D8D5F80090B9F1DC
:1015E000000F02D16FF08004D1E76B68032BF9D9AB
:1015F000BB6849460520C9F8003009AAFFF778F909
:1016000004460028C3D1BBF1090F00F29380DFE844
:101610000BF027345662697A6F3B80510520B96818
:1016200009AAFFF7C7F96FF4C1635344022B0446BC
:1016300003D90028ABD18146E5E7D5F80090B9F190
:10164000000FCFD06B68032BCCD9BB68C9F8003032
:101650000028D8D040F20B639A4598D1002496E731
:101660007B68099898E806000EF010F804460028F8
:10167000F4D04846FFF770F989E77B68099898E845
:1016800006000EF00FF8F1E705F10C030293EB688A
:1016900009980193AB680093D5E9041205F114038E
:1016A0000EF02EF8044608B90024E2E70023EB60B0
:1016B0006B616CE709980DF0DAFF0446D9E70998E9
:1016C0002B1DD5E900120EF066FA04460028C5D09D
:1016D00000236B605BE70998D6E902120DF0EEFF7C
:1016E000044654E70998D7E9031207F08BFEF7E7A1
:1016F0002B1D01936B68099800932B68D6E90212A1
:1017000007F0DAFEE1E70998D6E9021207F0A6FE33
:10171000E6E7F36809980193B3680093D5E90212EC
:1017200005F10C030EF01EF804460028BCD000237F
:10173000EB602CE76FF0850429E76FF085007047B8
:101740006FF08500704700232DE9F04706688EB0E2
:10175000B6F828900DF1140807460D469246D2E9D6
:1017600000214046049300F071F9B9F5106F0FD1D4
:101770002B1D03936B6802932B680193FB68009306
:10178000BB68706898E806000EF060FA044626E030
:1017900040F60113994517D12F68002F74D06B685C
:1017A000032B71D9B368394604203B6004AAFFF7C4
:1017B0009FF8044698B97168049807F0AFFE044694
:1017C000002872D100240AE00420B16804AAFFF7BF
:1017D000F1F8044638B140F60A13994557D020462F
:1017E0000EB0BDE8F087A9F60219B9F1080F6BD861
:1017F000DFE809F0050F14281B5F222F4D00296830
:10180000002941D06B68042B3ED104980EF04CF8AF
:10181000BCE7316B04980EF050F8B7E7718D04986F
:10182000D7E902230EF029F9B0E7718D0498D6E9C3
:101830000C2307F0C9FEA9E70498D5E900120EF0C1
:101840006DF8A3E7718D049898E80C000EF01EF96E
:101850009CE72E68C6B16B68032B15D9B96899B19E
:10186000FA681C2A10D107A80DF016F8DAF804005F
:1018700007A900F0EEF84246049907A80EF064F8B4
:10188000059B04463360AAE76FF08004A7E72F6842
:10189000002FF9D06B68032BF6D9B3683B60002C9E
:1018A00090D104980DF082FF04463846FFF754F8B3
:1018B00095E7FB68718D0193BB680498009398E8E5
:1018C0000C0007F0B3FE61E76FF0850487E72DE9B0
:1018D000F0418EB003ACD0F8008006460D461746A6
:1018E000D2E90021204600F0B1F840F20322B8F816
:1018F0002830934203D0A3F50273012B0ED8B168B0
:1019000011B96FF0800426E0F2681C2AF9D107A80B
:101910000CF0C2FF786807A900F09BF8B8F82830EF
:10192000A3F50073092B00F28A80DFE803F02F187B
:1019300024052A414D595E77D6E904122E68002EFF
:10194000DFD06B68032BDCD9234607A807F0F8FA31
:101950000446039B336020460EB0BDE8F0812E683C
:10196000002ECED06B68032BCBD9D4E900012246E0
:101970000EF0E3FAECE794E803000EF0FFFA0446F9
:10198000E9E794E8030007F09FFAF8E794E803001A
:1019900007AA2E680DF026FA2B680446002BB0D05B
:1019A0006A681C2AADD8304607A90CF075FFD2E74B
:1019B0002B1D0093D5E9002394E803000DF064FA91
:1019C000044650B90024C6E72B1D0093D5E9002337
:1019D00094E803000DF07FFAF2E700236B60BAE7AA
:1019E00094E803000EF0EBFAC9E7002205A81146BF
:1019F0002E6800F02BF82B68002B82D06B68032B2D
:101A00007FF67FAF94E8030005AB07AA0DF093FAC9
:101A1000044600289FD1059B3360D3E72E68002E33
:101A20003FF46FAF6B68032B7FF66BAF214607A8BF
:101A30000EF058F9044600288DD1039BECE76FF0B7
:101A4000850488E7D1E9000107F056BEC0E900210E
:101A50007047886170476FF085007047FFF7C4B822
:101A60002DE9F04F1546182204468DB00E460DEBB9
:101A7000020000219946DDF858809DF864B00CF012
:101A800030FF74B3228904F10C07BBF1000F26D19B
:101A90002368CDE90432EEB12A46314638460CF0CF
:101AA000FBFE042205A978190CF0F6FE281D04227D
:101AB00004A938440CF0F0FE04F1200ABBF1000F39
:101AC0002DD00C21504603F09BFB68B14CF2DA2379
:101AD000984206D06FF083000DB0BDE8F08F43460A
:101AE000D7E76FF08600F7E70C230B9314230993D5
:101AF0001023029304F12C030193189B4246009398
:101B00004946179B06A8CDE90665CDF828A0089799
:101B100004F02BF90028D9D1C4F8048017E00C2375
:101B20000B9314230993189B42460293179B494633
:101B30000193102306A8009304F12C03CDE9066558
:101B4000CDF828A0089704F022F90028BED1002083
:101B5000C2E708B5036800209B689847002818BFB3
:101B60006FF0910008BD0020704770B504460E4626
:101B70000025E368AB4201D8002070BD606806FB19
:101B8000030023682844DB69984710B9A3681D4403
:101B9000EFE76FF09100F0E72DE9F04F036895B0A3
:101BA00005AA04460E46D3F80C8000F017FC002866
:101BB0005FD10AA800F014FF014600285CD1DDE9DE
:101BC000057A3C2205A8089D0CF08BFE3146204684
:101BD00005AA00F053FD00284BD1834681462368B7
:101BE000DB8A5B4515D8002D35D12946204602AA4F
:101BF00000F084FC00283CD12946204602AA00F0CF
:101C00009FFEB0BB204600F084FE78B36FF08300E7
:101C10002FE0B3451CD05946204605AA00F0DEFB54
:101C200038BB059BBB420DD10AA800F0D9FE48B9CC
:101C3000069B534506D9984528BF98465B1B0693DB
:101C4000089B99445946204605AA00F017FD80B923
:101C50000BF1010BC3E743462A4639462046CDE93E
:101C600000A900F0B6F920B9002FCBD1204600F032
:101C7000A0FB15B0BDE8F08F6FF08B00F9E770B5F1
:101C80000C461646054648B341B33AB3098A0129C2
:101C900024D9032922D03C22E38A022902FB03F340
:101CA000A08AE26807D0904218D80C200239083385
:101CB00000FB013307E0A2F11401C91A81420DD3E0
:101CC00090420BD81433934208D81822002128469A
:101CD0000CF007FE0020C5E9004670BD6FF08600DD
:101CE000FBE737B5054600F0B8FD044658B94FF09C
:101CF0008071284601AA00F0E3FB38B92846019913
:101D0000FFF74AFF0446204603B030BD10F18C0FA8
:101D100018BF0446F7E700F0C3BC30B591B01446D5
:101D200001AB6A4600F099FB0546A8B9049B0C225A
:101D30006360039B09A92360BDF8143004F12000FF
:101D4000A3600CF0A9FD10220CA904F12C000CF0EA
:101D5000A3FD284611B030BD6FF08B05F9E72DE9E2
:101D6000F04399B00DF12408044689461546002138
:101D70003C2240461F46209E0CF0B3FD4FF6FF73F9
:101D8000CDE9043325B96FF0860019B0BDE8F083C2
:101D9000AB68B3F1807FF6D2236849465A8A6B68F4
:101DA0002046013B1344524213406B6004AA434651
:101DB00000F053FB002840F09380AB6804999A032D
:101DC00006D50C9AD5F804C062457BD10B900D93D3
:101DD00005914FF6FF73059A9A4240F08A80216878
:101DE0006B68898A8B42CED806A9CDE9028105A904
:101DF0000191A9682046009104998A1A18BF01220E
:101E0000494600F0DAFB0028BFD1002F79D12046E7
:101E1000099906AA00F094FD00285ED10C2205F174
:101E2000200111A80CF038FD102205F12C0114A896
:101E30000CF032FD05994246204600F01FFC014699
:101E400000284AD1DDE904539D4228BF1D462046A3
:101E50002A4600F0EBFC00283FD14FF6FF72049BAE
:101E600093420FD0059A93420CD09A4238BF1A463B
:101E70002046691C00F0DAFC78BBDDE904539D4282
:101E800038BF1D4623682046DA8A691C00F0CEFC64
:101E900018BB099B002B65D1002F63D0204600F0B2
:101EA00088FA00287FF471AF4FF6FF7304999942C6
:101EB0003FF46BAF059B99423FF467AF2046FFF7B5
:101EC0006BFE62E70D9B424643F0807320460D9304
:101ED00000F0D4FB00283FF47CAF6FF0830054E7A0
:101EE00010F18C0F7FF451AFAB68DB037FF54DAF82
:101EF0006FE72046099906AA00F000FB002884D06D
:101F0000EBE723685B8A5A1E3242E6D107F1FF39BC
:101F100099445B4209EA03090B9B9E42DDD84A467D
:101F200031460C9800F050FD0028D6D1219B424646
:101F3000CDE900932046334606A900F0C0F80028FA
:101F4000CBD10B9B3E449E420999204688BF0B96FD
:101F5000069E00F029FA31460690099A204600F0C4
:101F60008AFB54E7204600F0D4FC002896D0B4E762
:101F700013B5002301AA044600F06FFA28B92046E1
:101F80000199FFF709FE02B010BD6FF08B00FAE770
:101F900070B592B015461C4602AA03AB064600F087
:101FA0005CFA98B92A462146059800F00DFD58B90B
:101FB000169B2246009330462B4603A900F05EF89C
:101FC000002818BF6FF0830012B070BD6FF08B0057
:101FD000FAE72DE9F04786B01646DDE90E9703AA29
:101FE000054688469A4600F089FA044698B9059B4A
:101FF000414633442846059300F0D6F906467FB1A2
:1020000001464A462846CDE900A7039B00F0E0FBC5
:1020100028B16FF08304204606B0BDE8F0870127A1
:10202000DDE903324A450AD2A9EB0201CDE90021DC
:102030002846314600F0CCFB0028EAD10127424671
:102040002846039900F017FB4146284603AA039649
:1020500000F076FC044628B142463146284600F09E
:102060000AFBD8E7B8F1000FD5D0002FD3D06B68AA
:102070003146DB68286898470446CCE72DE9FF41E4
:102080000D461646096801AA04461F46DDF8288059
:1020900000F034FA70B901994B1C0BD062686B6880
:1020A0000A9755684246AC462068334404B0BDE800
:1020B000F04160476FF0830004B0BDE8F0812DE986
:1020C000F3471546DDE90AA90F469846116804460C
:1020D00000F06AF96B687A689844A8EB0203CDE9CE
:1020E0000023064601463B68204600F071FB20BBFA
:1020F0006368CDF800A0D3F808A04A4643463146AD
:102100002068D047C8B9EB686A68B9681A44236880
:102110002046DB685B1A9B1ACDE9002331463B68F9
:1021200000F056FB48B92B683BB131466368206824
:10213000DB6802B0BDE8F047184702B0BDE8F087A1
:1021400013B50C2404FB01F3416800948C68083338
:1021500041690068A04702B010BD436810B54169ED
:1021600004461B690068984750B923681A8A022AF6
:1021700006D96268A1681846BDE810401269104788
:1021800010BD008A022814BF03380020704708B52C
:10219000FFF7F7FF0C233C2200FB033302FB013067
:1021A000083008BD2DE9F04F002405460F46904643
:1021B00026464FF00C0993B0D5F800A05046FFF723
:1021C000E0FF013086420ED300264FF03C09D5F8DF
:1021D00000A0BAF816309E421DD3002088F80040B7
:1021E00013B0BDE8F08F09FB06F36A68CDF80090E4
:1021F000D2F804B039465046083303AAD84700281D
:10220000EED103AB13F8012B01300C2884EA020451
:10221000F8D10136D0E76B6831465046D3F804B0A8
:10222000FFF7B5FF39460346CDF80090504603AAA4
:10223000D8470028D4D103AB13F8012B01303C2838
:1022400084EA0204F8D10136C1E737B5837B01681F
:102250005A1CD2B28273097E04469142416904BF7E
:1022600002338373012900F10D020DD8FFF79AFFA5
:1022700040B90822636800929D6861690346A2180C
:102280002068A84703B030BD6FF08600FAE713B5A9
:102290000C46114622790346012A09D10368627966
:1022A0001B7E9A4214BF00206FF0830002B010BD65
:1022B000022A04D11B68A2791B7E9A4202D16FF0D8
:1022C0008300F3E701290DD80DF10702FFF76AFF3C
:1022D0000028EBD162799DF807309A4218BF6FF061
:1022E0009100E3E76FF08600E0E70822F0B543686D
:1022F00087B000925C6800236A440546194600686E
:10230000A0470246002832D000264FF0FF340822B2
:102310006B6800925F6801210023286804AAB8470F
:1023200000283AD10122284604A9FFF7B0FF03464E
:10233000002832D1002E35D02A689DF81610127E62
:102340009DF80E00B2FA82F25209914218D100298A
:1023500014BF022301231B1A18BF01231C462C6142
:10236000B4FA84F4002064096C6107B0F0BD28461B
:1023700002A9FFF78CFF04460028C5D10126C6E755
:10238000904205D1002814BF022201229142E5D1DA
:1023900088422CBF00230123E0E7002EDFD16FF03D
:1023A0008300E2E70124DAE709B9406970478068F1
:1023B000704710B50446FFF748FF70B9636861695C
:1023C000DB682068984740B9D4E904232046C4E973
:1023D0000432BDE81040FFF7C0BE10BD2DE9F34147
:1023E0000668054630461446FFF7D1FE3C216A6870
:1023F000009103465768304622462969B847064689
:1024000040B92868FFF7BDFE23680130834205D339
:102410006FF09706304602B0BDE8F08104F1140079
:1024200000F0DEFA0028F5D12D68E768AB8A9F42FC
:10243000EED8A3689F42EBD3D4E900382BB92846E5
:10244000E98AFFF7A4FE4045E2D83A464146E868EB
:1024500000F0BAFA0028DDD0DAE72DE9F0430746AC
:10246000884691461C46002591B03B68DB8AAB420A
:1024700002D86FF08B061AE02946384601AAFFF70A
:10248000ADFFD0B90C22414606A80FF0CDFF06469D
:1024900088B9C9F8005054B101AD0FCD0FC40FCDAC
:1024A0000FC40FCD0FC495E8070084E8070030463D
:1024B00011B0BDE8F0830135D7E76FF08306F6E78A
:1024C000F0B505460E461746002491B02B68DB8A0E
:1024D000A34202D86FF08B0009E02146284601AAEA
:1024E000FFF77CFF38B9059B1E4202D03C6011B05B
:1024F000F0BD0134EAE76FF08300F8E773B50646F4
:102500000C2000FB01F3716800904C683068316961
:1025100008331546A047044630B9336829681A8A3B
:10252000914204D36FF09704204602B070BDD86882
:10253000D5E9011200F048FA04460028F2D12B68D0
:10254000012B03D83068C18AFFF721FE6B688342F4
:10255000EAD0E7E7F7B50C2606FB01F341680096E1
:102560004F6808330169054600681446B8470346BA
:1025700030B92B6821681A8A914204D36FF097030F
:10258000184603B0F0BDD868D4E9011200F01CFA77
:1025900003460028F2D12268012A0AD82A68104688
:1025A000FFF7EFFDD18A3C22514300FB066608315C
:1025B000881962688242E3D0E0E72DE9F04F0546D2
:1025C0008B4691469846002791B0DDE91C6A286841
:1025D000FFF7D7FD0130874202D36FF08D0420E072
:1025E000524639462846FFF789FF044680BBDAF891
:1025F000082090452AD82B685946DB6837609B1A1B
:1026000073600C22C6F80C8006F114000CF044F93B
:102610001A9BB4603361DAF80830A3EB0803CAF8F8
:10262000083000262B68DB8A9E4205D231462846B8
:1026300001AAFFF7D3FE70B14FF6FF766FF08D045D
:1026400020461B9B1E6011B0BDE8F08F0137BEE72E
:102650006FF08304E5E706A800F0C2F948B1B9F1CC
:10266000000F04D0002C18BF6FF08D04E8E74FF086
:1026700001090136D6E702B181607047F7B50668F7
:10268000044630461546FFF782FD3C216268009102
:102690000346976830462A466169B84703B0F0BDE3
:1026A000F0B593B00546FFF720FE002861D16E69B2
:1026B0006B6831461B69286898470446002878D122
:1026C000B6FA86F16B6828681B6949099847044681
:1026D00000286ED12E680127337EB3FA83F35B099D
:1026E000AB73338AC5E90407022B14BF022301230D
:1026F000AB6002232B73F18A3046FFF748FDF36885
:1027000021461B1A01906A46284602930097FFF75C
:1027100017FD044600284CD106462B680190DB6863
:1027200002932B681846FFF72CFDB04223D8002CEB
:102730004BD12B681846FFF724FDA04228D83C2235
:10274000002103A80CF0CDF800242B68DB8AA342FB
:1027500032D82846FFF779FD48BB6B686969DB68AA
:1027600028689847044620BBD5E90423C5E904320C
:102770001FE000269CE7198A6A68022914BF03211A
:102780000021184631441269904701360443C8E7D6
:102790001B8A6A46022B14BF0323002323440134FF
:1027A000214628460093FFF7CBFC0028C1D06FF0EC
:1027B0008304204613B0F0BD2146284603AAFFF744
:1027C0005DFF0028F3D10134BFE76FF09104F0E71B
:1027D0002DE9F04F0446884616469946C3B0DDE918
:1027E0004CA51DB9284643B0BDE8F08FB5F5807FF4
:1027F0002F4628BF4FF4807763680097D3F804B062
:1028000049465346206802AAD8470028EBD163689E
:102810000097D3F808B041463346206802AAD8474B
:102820000028E0D13E44BA44ED1BDAE7F7B507686B
:10283000044638461646FFF7AAFC31460546384698
:10284000FFF7A5FC401BCDE900502A46204623692E
:102850006169FFF7BDFF03B0F0BD2DE9F0414368AA
:1028600005461B68006886B09847044628B9284684
:10287000FFF73BFD28B16FF08304204606B0BDE8AA
:10288000F08108266B6805F108070096D3F80480EC
:102890003A46234629692868C0470028EBD13946C3
:1028A00028462A69FFF7F3FC0028E4D12846FFF701
:1028B00054FC04460028DED12B7B012B24D1014699
:1028C00003AA2846FFF746FE04460028D5D1059BFB
:1028D0002A68C3F1FF23D26803F57F03F83313445A
:1028E000CDE90063324628462B696969FFF770FF1E
:1028F00004460028C1D16B7B2846AB7302232B739F
:10290000FFF757FD0446B8E7022B18BF6FF08304AA
:10291000B3E710B586B0002103AA0446FFF7EEFD29
:1029200060B92068049A059BD118C36820465B1AD9
:10293000CDE90023D4E90431FFF74AFF06B010BD0A
:10294000F0B504460D4687B009B9436913602946BE
:102950002046FFF7F5FB0146E0B9D4E904769DB9BE
:102960000C2205FB02220021206802F10805FFF776
:102970000EFC401BCDE900503B462A46314620461E
:10298000FFF726FF07B0F0BD204603AAFFF7B6FD0C
:10299000014610B16FF08300F4E7204603AA0396C6
:1029A000FFF7CEFB0028F5D1012DD9D00C2314223E
:1029B0006B430C3B019331463B4620460092FFF7A8
:1029C00007FF0028CCD0DDE7814206D8401A9042AC
:1029D0002CBF00206FF0860070476FF086007047B4
:1029E00000F10C03984202D16FF08B00704710F891
:1029F000012B002AF6D000207047F0B5036804468A
:102A0000A3F2F233A7B0032B00F21B81DFE803F03F
:102A10000259A1A40023C269169300F11C03002AE5
:102A200038D00421E26A04F12C03002A3ED00422AB
:102A30002369042B43D1206A042840D801293ED1C0
:102A4000012A3CD10021606806AA05F0E7FA0428B3
:102A500035D1A268069B002A2ADB022B18462ED805
:102A6000B2F5807F2BD1216A16AA03F028FA30BB79
:102A70000146236A606816AA05F0DAFA002066E0CB
:102A80000029CFD053F8040D0A4601390028F7D0A9
:102A90001146C7E70321F5E7002AC9D053F8045DC2
:102AA0001046013A002DF7D00246C1E70322F5E7B0
:102AB00003F108000228069001D9022BD3D9012086
:102AC00045E0C26900F11C033AB30422E16A04F153
:102AD0002C0371B304212369042BF0D1012AEED118
:102AE0000029ECD1606816AA05F098FA0428E6D10E
:102AF000A268169B002A1EDB022B1846DFD8B2F50F
:102B0000807F1FD0DBE7002AE0D053F8040D114688
:102B1000013A0028F7D00A46D8E70322F5E7002952
:102B2000D9D053F8045D08460139002DF7D001468D
:102B3000D1E70321F5E703F1080002281690BED97A
:102B4000022BBCD803F0F3F9003818BF012027B0DE
:102B5000F0BD02F0D9FC91E700253C22294607A8E8
:102B6000CDE90255CDE9045506950BF0BAFE3C229D
:102B7000294617A816950BF0B4FEE269019504F1F9
:102B80001C0302B30426E26A04F12C033AB30425C1
:102B9000731E012B93D8012D91D804230021606866
:102BA0000DEB030205F03AFA04281AD06FF080000A
:102BB000CDE7002EE7D053F8041D3246013E002930
:102BC000F7D01646DFE70326F5E7002DE0D053F8EF
:102BD000041D2A46013D0029F7D01546D8E70325F4
:102BE000F5E7022E22D16669402E27D806AF33467C
:102BF0003A460121606805F011FA8642D6D1CDE946
:102C0000027602A9A5B1236A402BCFD816AACDE936
:102C10000423019804AA03F0D7F8DDE9042305464C
:102C20000021606805F004FA284690E70021E9E7F2
:102C30002A46019803F0C8F80546F5E76FF08900C9
:102C400085E76FF0850082E708B503F036F90028C4
:102C500014BF6FF09200002008BD0000531B00005D
:102C6000A50F0000610F0000671B00006B1B000038
:102C70000100000002000000040000005B45525209
:102C80005D5B43727970746F5D20556E7375707003
:102C90006F727465642072657175657374210D0AB5
:102CA000004D62656420544C5320332E362E320082
:102CB0004372656174696E6720616E20656D707422
:102CC000792049545320666C617368206C61796F78
:102CD00075742E0D0A004372656174696E67206118
:102CE0006E20656D70747920505320666C61736836
:102CF000206C61796F75742E0D0A000000000000D1
:102D00006FF47A72F0B5474B0446186003688DB0D3
:102D10001344042B08D8DFE803F003274867770043
:102D200003698668082B02D06FF0800559E0856939
:102D3000042DF9D10021406808AA05F06FF9082890
:102D4000F2D12B460221606806AA05F067F9042833
:102D5000EAD1069B3046019363690093DDE90823BD
:102D600000F004FD05463CE00369082BDCD1456911
:102D7000042DD9D10021406808AA05F04FF9082890
:102D8000D2D12B460121606805AA05F047F9042835
:102D9000CAD106AB0293236A0193059B0093A068F6
:102DA000DDE9082300F0F8FCDCE70369082BBBD160
:102DB000076A0C2FB8D10021406806AA05F02EF949
:102DC0000828B1D1DDE9062308AE0096A06800F01E
:102DD000F7FC054628B901463B463246606805F0D7
:102DE00027F928460DB0F0BD0369082B9CD10021BE
:102DF000406808AA05F012F9082895D1DDE90823F2
:102E0000A06800F0EDFCADE7056A042D8CD100F060
:102E1000FAFC2B4608900021606808AA05F008F922
:102E20000025DEE7501D002038B5074B02461D681F
:102E30000C460B466868012105F0F0F8844214BF87
:102E40006FF08000002038BD501D00200B46044963
:102E500010B40C6802460021606810BC05F0E8B8A8
:102E6000501D002008B5074907480BF0C4FD00F0CD
:102E70000DF830B100F0D5FC18B9BDE8084000F0FD
:102E800005B808BD00025005F039000010B5044C2B
:102E9000204600F0C7F9034B383C5C6010BD00BF12
:102EA000A80C0020541D00202DE9F047DFF860A099
:102EB0001F46534681468846164600F0DDFA044612
:102EC00000BB144DDAF800002946C5E90498AE614C
:102ED00000F0D6FC044678B9AE6ABE4215D3089B12
:102EE000F61B9E4228BF1E4605F138003146384485
:102EF000FFF7ACFF099B1E6040F648020021054821
:102F00000BF0EFFC2046BDE8F0876FF08604F3E796
:102F1000541D0020700C00202DE9F74FDDF830A083
:102F20008046BAF5006F0F4691469B4668D8364EEC
:102F3000334600F0A1FA0446002843D1334D3068EF
:102F40002946C5E90487C5F8189000F099FC0446A5
:102F500070BB2B6BDB0750D40123C5E90BABD6F854
:102F600000B051462A480193FFF75EFF0446F8B9C6
:102F7000019B264D18462449C5F828A000F0F4F915
:102F80000446A8B929463068C5E90487C5F81890F1
:102F900000F0B9FC044658B94A46404639461A4B37
:102FA00000F014FA0446E8B1002130680BF044FA4E
:102FB00040F64802002115480BF093FC204603B070
:102FC000BDE8F08F10F18C0FF2D1104C40F64802A2
:102FD000002120460BF085FCC4E90BAB02234FF027
:102FE000000BBEE7BBF1000F03D100F081FA0446ED
:102FF000DEE7584600F009FCF9E76FF08404D7E7F4
:103000006FF08604DAE700BF541D0020700C00202A
:10301000A80C00202DE9F047DFF848A01E465346D3
:1030200081468846174600F027FA0446B0B90E4D8F
:10303000DAF800002946C5E90498AF6100F020FCE9
:10304000044628B9AB6A7360EB6A33602B6BB360DC
:1030500040F64802002104480BF043FC2046BDE83E
:10306000F08700BF541D0020700C00202DE9F843AC
:10307000DFF86080074643460E46914600F0FCF9B3
:10308000044600BB144DD8F800002946C5E9047673
:10309000C5F8189000F0F4FB044670B92B6BDB0701
:1030A00014D44A463846314600F0FCF9044620B9AB
:1030B000D8F8000000F0A9FB044640F648020021C1
:1030C00005480BF00EFC2046BDE8F8836FF0840441
:1030D000F3E700BF541D0020700C0020F0B5002560
:1030E0000A4CD4E910768E4208BF874205D1A66CFF
:1030F000964202D100201D60F0BD01350B2D04F178
:103100002004EED16FF08B00F6E700BFB81400206A
:10311000002070B5DEB0029000F04EFC044618BBF3
:1031200002A900F03EFC0446F0B91021314800F03D
:10313000E9F90446C0B9304D029E284600F040FA35
:10314000044678B94FF4B47205F1280103A85D96DE
:103150000BF0A2FB4FF4B672284603A900F0BEFAAA
:10316000044620B100F018FA20465EB070BD00F0B1
:1031700013FA04460028F7D195F891612B46009088
:103180004FF4C8720021701C0BF0F8F804460028B8
:10319000EAD195F89031039003A9012085F8913187
:1031A00085F89061029D00F0FCFB58B16FF083043C
:1031B000DAE7012000F000FC04460028D4D1039B8C
:1031C00001330393039B9D42F3D8022003A900F02F
:1031D000E8FB0028EAD1039B9D4201D80024C3E705
:1031E000022000F0E9FB04460028BDD1039B013317
:1031F0000393F0E7600C0020B814002010B5084CD1
:103200004FF4CC72204600210BF06BFB0123A4F895
:10321000903184F82830BDE81040FFF779BF00BF37
:10322000B8140020002270B54D4D88B002AE049055
:103230004FF4C87301200021CDE90056CDE90622E4
:103240000395ADF814200BF0B7F810B101238DF8F9
:103250001430049B0022009302204FF4C873002115
:1032600001960BF0A9F810B101238DF8153000F08C
:1032700005FB044678BB10213A4800F043F90446A8
:1032800048BB06A900F08DFB044638BB314601203F
:1032900000F087FB044608BB022007A900F081FB71
:1032A0000446D8B9079A029B9A429DF8143018BF79
:1032B0000790012B03D0002003A900F0B4FA9DF879
:1032C0001530012B03D0012003A900F0ACFA00F067
:1032D00063F9044628B1204608B070BD00F05CF9DF
:1032E000F9E7039B049993F82830012B1CBF0123B5
:1032F0008DF8143091F82830012B1CBF01238DF874
:10330000153040F20113BDF814209A4223D09DF8E5
:103310001430012B07D14FF4C8721148A5F8903131
:103320000BF0BAFA07E09DF81530022B11D04FF4DC
:103330008073A5F8903195F89101002101300BF0D0
:103340007BF810B110F18C0F08D1054800F030F96E
:10335000C1E70123DFE76FF08304BCE70446BAE767
:10336000B8140020600C002070B50D4648B300234F
:103370001C46154AD2E91016314304F1010106D06A
:103380000B2919D01C46203223460C46F2E70B29A4
:1033900000F1FF300FD020320028F5D12346DC1C8D
:1033A000204600210BF048F810B110F18C0F01D12C
:1033B00000202C6070BD0A230028F0D06FF08D0033
:1033C000F8E76FF08600F5E7B81400202DE9F04724
:1033D0001E4600238146884617468AB0244D02AC1B
:1033E00001930FCD0FC495E80F0084E80F003A4613
:1033F0004846414601ABFFF771FE1E4D824668B953
:10340000019C202205EB44143034214602A80BF025
:1034100043FA2022514620460BF063FA3368716864
:10342000DC1E05EB431343E9089805EB44131C46E7
:103430003034102220469F640BF02EFAFFF768FE0E
:10344000064688B1DDE90632134308D0019B2022ED
:1034500005EB431502A905F130000BF01DFA2022FF
:10346000002120460BF03DFA30460AB0BDE8F08757
:10347000D0390000B814002037B51D4601ABFFF766
:103480002DFE044648B9019B0549DA1C2A6068688C
:10349000102201EB43110BF0FFF9204603B030BDC1
:1034A000E8140020002330B58BB0019301ABFFF787
:1034B00015FE0446B0B9019B0C4D202205EB4315C7
:1034C000294602A80BF0E8F92146202228460BF0F5
:1034D00008FAFFF71DFE044620B12022284602A963
:1034E0000BF0DAF920460BB030BD00BFE814002025
:1034F000034B002193F8910101300AF09DBF00BFFA
:10350000B814002030B589B004460D461C220021B5
:1035100001A80BF0E6F9002300938DB384B34FF4B8
:103520004072194B4FF00821CDE90323174B684631
:1035300001930AF0AFFE08BB40F201116846144A3D
:103540000AF062FEA8B92B46224640F201216846E5
:103550000AF0C4FE68B90F4C6946224601A80AF079
:10356000E5FE30B968460AF073FE38B120680AF00B
:1035700091FD68460AF06CFE6FF0830009B030BD23
:103580006FF08600FAE700BF0002500500248000BB
:1035900002C0FF7F5C1D002008B5044B18680AF0CC
:1035A00079FD002818BF6FF0830008BD5C1D002066
:1035B00000F11C010C2201480BF06EB9601D0020C7
:1035C0001FB50822184904460DEB02000BF064F900
:1035D000042216490DEB02000BF05EF9029B039AE0
:1035E000013342F10002CDE90232134314D0082224
:1035F0000D480DEB02010BF04FF904220B480DEBC7
:1036000002010BF049F90C22074904F11C000BF0F0
:1036100043F9002004B010BD019B01330193002B3E
:10362000E5D16FF08300F5E7601D0020681D0020E4
:10363000F0B5054689B010980F9FCDE90012CDE98D
:1036400004700E98119ECDE902300C4806960C23AA
:103650000B49006805F11C020AF03AFD044650B916
:103660003168102210393160284639440BF014F9C2
:10367000204609B0F0BD6FF08304F9E75C1D00201F
:10368000000250052DE9F0411D460F4690460446C4
:1036900088B00E9E0146102298190BF0FDF8119B80
:1036A00010360693109BCDE902560593CDE90078BC
:1036B0000F9B0848049308490C2304F11C0200687E
:1036C0000AF054FD002818BF6FF0940008B0BDE860
:1036D000F08100BF5C1D00200002500500B58BB0DA
:1036E00009AB06931023CDE904030023CDE90012B2
:1036F000CDE9023300F11C0208480C230849006898
:103700000AF0E6FC38B9099B102B18BF6FF0830054
:103710000BB05DF804FB6FF08300F9E75C1D00203F
:103720000002500500B58BB009AB06930023CDE92C
:1037300004331023CDE90012CDE9020300F11C028D
:1037400007480C23074900680AF010FD099B18433D
:1037500014BF6FF0940000200BB05DF804FB00BFB5
:103760005C1D002000025005FFF77CBB30B41946F9
:1037700004461046DDE9022350EA010505D0072B77
:1037800007D8224630BCFFF7C7BB6FF0860030BCBD
:1037900070476FF08500FAE770B41946044610468A
:1037A000DDE9033250EA0106059D05D0CDE9032588
:1037B000224670BCFFF778BB6FF0860070BC704784
:1037C000194610B40446104650EA0102019B03D08A
:1037D000224610BCFFF71EBC6FF0860010BC70477D
:1037E000194652EA010310B50446104608D0224695
:1037F000FFF73CFC10F1950F08BF6FF0830010BD80
:103800006FF08600FBE70020704710B50446FFF715
:103810006FFE014620B92046BDE810400AF00CBEFC
:1038200010BDFFF7EBBC70B551F82060DCB0CB6881
:103830004FF4B47205460C4601A806F128015B93CB
:103840000BF02AF84FF4B672304601A9FFF76AFF71
:1038500080B1236983B14FF4B672304601A95B93FE
:10386000FFF760FF00280CBF032301232C442372C1
:103870005CB070BD0223F9E70123F7E70020704731
:10388000002270B58EB005AB019301F11C030C460C
:103890000093114640F61C0306460AF08DFD68BBF6
:1038A000D4E90423CDE90823A3690422069607A9D5
:1038B0000BA808AE0793059D0AF0EEFF31460822DB
:1038C0000CA80AF0E9FF0C210BA8FFF71BFEA8B912
:1038D0004FF402620C3D04F12803CDE90132204689
:1038E00004220396009506A9FFF7CCFE10B9089BA9
:1038F0009D4205D0FFF750FE6FF083000EB070BD03
:10390000FFF74AFEFAE72DE9F041D1E904238CB034
:10391000CDE906238B6904228E6A049005460C4685
:1039200009A805A906AF05930AF0B6FF0822394693
:103930000AA80AF0B1FF0C2109A8FFF7E3FD014630
:10394000E0B92046FFF73CFE0146B8B94FF40262E9
:1039500006F1100804F12803CDE9013220460422C3
:103960000397CDF8008004A9FFF762FE10B9069B0B
:10397000984507D0FFF710FE6FF0830108460CB0A2
:10398000BDE8F081FFF708FE01460028F6D100905F
:1039900004F11C03284606F11C020AF0EFFC014664
:1039A000ECE70A4608B504210AF074FD002814BFAC
:1039B0006FF08300002008BD08B50AF053FD002811
:1039C00014BF6FF08300002008BD0000000000005D
:1039D00000000000000000000000000000000000E7
:1039E00000000000000000000000000000000000D7
:1039F0005B494E465D5B50535D20456E6372797046
:103A000074696F6E20616C673A20307825780D0AF2
:103A100000000000000000000000000000000000A6
:103A20008844000001000000897E0000617E0000E3
:103A30000842010020C4002033000000D0410100F2
:103A4000801D00200E000000C0410100600C00201D
:103A500004000000ECC40020D8040000B81D0020C1
:103A60009A290000700C002044040000400C002043
:103A70000800000003F0B4BC08B572B61E4A1F4B24
:103A80009A601F4B83F309881E4B83F30A8883F3E4
:103A90000B881D4B16A1D1E90001C3E9000100F01C
:103AA00075F81A4B1A498B4212D30020194B1A4948
:103AB0008B4218D304F0FCF9186850F8224058687B
:103AC00040F82240013298688242F5D30C33EAE78D
:103AD0000022F8E71C6844F8220001325C68A24228
:103AE000F8D30833E4E70022F8E700BFAFF3008023
:103AF000A5EDF5FEA5EDF5FE0000000000ED00E0EF
:103B0000380C002040040020380C0020303A00001F
:103B1000543A0000543A0000743A0000EFF3088071
:103B2000EFF309812DE9F00F6B46724600F0B0F813
:103B300008B0FFF79FFFFEE7064BD3F840231C2A8F
:103B400005D1D3F84403431E584258417047002022
:103B5000704700BF00C0FF0003689A070CD50368D8
:103B6000DB070DD50922074BC3F80C250F22C3F83C
:103B7000042501221A60FEE7034B0360EF3B03605C
:103B8000704700BF00801050F000FA50012208B5C5
:103B9000334B3448C3F80028FFF7DEFF0830FFF747
:103BA000DBFF0830FFF7D8FF0830FFF7D5FF00F53F
:103BB000F470FFF7D1FF2C4AD2F88C3043F4406305
:103BC000C2F88C300022D30003F57F0303F5404395
:103BD000D3F8001401310AD0D3F8001439B1D3F866
:103BE00000140132D3F80434402A0B60EBD11C4B93
:103BF000D3F840247AB3FFF79FFF48B11B4BD3F8AB
:103C000034231B4B9A429EBF154B1A4AC3F84026D9
:103C1000FFF792FF18B1184B184AC3F8AC27FFF70B
:103C20008BFF48B134220E4BC3F82426D3F83C2630
:103C300022F40022C3F83C260323114A0A49C2F8A1
:103C40001835D1F88C3043F44063C1F88C30002330
:103C5000C2F8A03508BDC822C3F84024CBE700BF96
:103C60000000125000C50D5000ED00E000C0FF0044
:103C7000001D0A1840E0A91E00A0085078000A04A0
:103C800000B004507C2201490AF006BEBCCA0020E4
:103C900038B51D46384B394C5B68C3F308032360C5
:103CA000EFF3038363655306C4E90120E16039D56E
:103CB00002F00C020C2A08BF0846014620612022AF
:103CC0002F480AF0E9FD25B1202229462D480AF0A7
:103CD000E3FD294B9A6AA265D96AE165986B206673
:103CE00002F400406066586BA06602F08000E06657
:103CF0009A62D962D3F8E42023482267D3F8E81007
:103D0000616702F04001A167C3F8E4200E2101F0D1
:103D1000EFFE2268D31E042B22D8DFE803F00F1534
:103D2000181B1E00EFF39483990704D5130702D5DF
:103D3000EFF38980C1E7EFF38880BEE70C211348D9
:103D4000BDE8384001F0D4BE12211148F8E70B213C
:103D50001048F5E70D211048F2E70E210F48EFE774
:103D60000F2A98BF1421BDE8384089BF25210C488F
:103D70000C48103A02F068B900ED00E0BCCA00201F
:103D8000D0CA0020F0CA0020847A0000927A000095
:103D90009E7A0000B07A0000BB7A0000C87A00006A
:103DA000D67A0000EA7A00002DE9F34106460F4674
:103DB0000C4DD5F82C80C04710F00104FBD13946DA
:103DC00030466B69984740B9C047C307FCD42B6A9B
:103DD000019302B0BDE8F0411847204602B0BDE8AB
:103DE000F08100BF107B000010B5094C0020A368D3
:103DF00098472369022098474FF4E131A46A0120D3
:103E0000A04701211520A0470122024B1A6010BDD6
:103E1000107B000038CB0020064B82B018680023CE
:103E200082B262F30F03000C60F31F43184602B026
:103E3000704700BF587B0000014B1869704700BFF6
:103E400024C40020014B5869704700BF24C40020DF
:103E500010B5044C204600F037FF002084F82800FD
:103E600010BD00BF24C4002038B50C4D0C4695F899
:103E7000283013B94FF0FF3038BD0A4601462846B6
:103E800000F0B6FF064B984205D00B3B9842F1D1AB
:103E900000206C61F0E76FF00100EDE724C4002022
:103EA0000B00AD0BF0B51B4E054696F828300C46BE
:103EB00091B01BB94FF0FF3011B0F0BD00F060437E
:103EC000B3F1005F21D100230A460146304600F0DD
:103ED0001DFC114B98421AD00B3B9842EAD1346139
:103EE00011E0A71B402F28BF4027A9193A46684672
:103EF0000AF0D2FC39466846FFF7D4FF0028DBD130
:103F00004036B442EDD80020D6E70026F9E76FF03E
:103F10000100D1E724C400200B00AD0BF0B5C2B204
:103F2000012A04460B4685B040F0C180674E01AFC0
:103F300096E8070087E807004DF6C022934200F09C
:103F40008F802CD8B3F5615F00F08D8014D8B3F565
:103F5000965F00F08A800AD8B3F5966F00F08780EC
:103F6000B3F5166F00F086806FF0070076E0B3F5CA
:103F7000165FF9D1564B33E047F6122293427CD0BC
:103F800007D8B3F5964F7BD0B3F5E14FECD1514B49
:103F900026E0B3F5164FE7D14FF41D0320E04E4A5B
:103FA00093426FD011D8B3F5E13F6ED007D8B3F587
:103FB000614F6DD0B3F5963FD6D1484B10E0B3F5C5
:103FC000613FD1D14FF06C730AE0B3F5612F62D03D
:103FD000434A934262D0B3F5E12FC5D14FF0E86375
:103FE00014F4E06F66D114F4404103D0B1F5804F72
:103FF00063D110213B4D04F44052B2F5805FA88B91
:104000004FD0B2F5005F4FD0002A59D114F440349C
:1040100003D0B4F5403F56D101248DF804408DF80B
:1040200005208DF80610ADF8080097E8070086E82F
:1040300007002968EA8BC1F824356B62AB8BA87E38
:1040400013432A8C13436A8C13436A7E9BB2024348
:10405000287E024300201343C1F86C3505B0F0BD43
:104060004FF46503BCE7204BBAE7204BB8E74FF4A9
:104070009E23B5E74FF41D23B2E74FF40003AFE7EB
:104080001B4BADE74FF08063AAE74FF0EB73A7E758
:104090004FF46B03A4E74FF07063A1E74FF0805338
:1040A0009EE700200E22B1E74FF48070FAE76FF030
:1040B0000300D3E76FF00800D0E76FF00A00CDE708
:1040C0006FF00900CAE76FF00B00C7E73CC400209F
:1040D0000050270000C0750090D0030000903A0106
:1040E00040420F0024C4002000F03A0000B013004A
:1040F00000A04E0030B591B02C22002105A80AF096
:10410000F0FB4FF0FF33CDE90133CDE903334FF03E
:10411000EB730B930723124C01A8D4E902128DF81C
:104120003F3001F003FD01460022204600F050FA26
:104130000C4B984210D1002304F118050CAA07CAB1
:1041400085E807000B9A184662620122C4E904332D
:1041500084F8282011B030BD6FF00100FAE700BFED
:1041600024C400200000AD0B7FB500250C46C0F82C
:1041700010511646D0F81021D0F8002222F020026B
:10418000C0F80022104AC0F8082301F01FFDA56006
:10419000256104F14C03D3E8EF1F21F47F0121F4E2
:1041A0007041C3E8E21F002AF5D110222946684673
:1041B0000AF097FB042368468DF800300196D4E995
:1041C0000013984704B070BD20021800044B054A44
:1041D0001B68B3FBF2F35843034B43F0010318474A
:1041E00020C4002040420F00707B00005F2800F0D8
:1041F0001F034FEA50110BD8084A52F8212002EB56
:104200008303D3F88010064A0A40C3F88020704721
:104210000022203352F82330FFDE00BF5C7B000019
:10422000F0F0FCFF2DE9F04F804690F804A05020FC
:10423000664F0E4600FB0A70416885B049B113F025
:10424000020304D0836B002B00F0B28001230093A3
:1042500000E000914FF0500909FB0A73DB6CD906AE
:1042600000F1A6804FF0010BB3180293029BB342FA
:1042700000F0A78006F06043039398F80450D8F844
:10428000004009FB05739A6B9AB9039BB3F1005F79
:1042900040F09980019200F0EDFD09FB0572D16CB0
:1042A000204601F0010101F05FFC28B900F0EAFDB1
:1042B000E3E701230193EEE7516C33460029BCBFCD
:1042C000D4F844175164019A42B109FB0571307862
:1042D000D1E90E23D054D1E90E3213441BB1C4F8F6
:1042E0003C37C4F840B70022C4F86821D4F86811FC
:1042F000C4F83021D4F83011C4F86C21D4F86C2102
:104300000822C4F80025009AE2B14FF48053C4F8A3
:104310000433C4F850B000F0B5FD502303FB0A721B
:10432000516800294BD1D26C120748D503FB0A73A0
:104330004C33D3E8EF1F21F00801C3E8E21F002A45
:1043400036D0F6E7C4F850B0019300F09BFD09FBAE
:104350000572D16C019B01F001012046019301F02F
:1043600003FC8446019BD4F84407D4F83C27BCF1F5
:10437000000F0DD19342F0D005EB850507EB051535
:10438000D1B100F077FD2946204601F031FCC2E7AB
:1043900005EB8505934207EB0515F1D10028EFD118
:1043A00000F068FD2946204601F022FC00F06AFD7D
:1043B000074805B0BDE8F08FC4F854B0E1E7013616
:1043C00054E70448F5E70448F3E700BF3CCB00207E
:1043D0000800AD0B0000AD0B0400AD0B5F284FEAE9
:1043E000501208D8054B00F01F0053F8222001237B
:1043F00083405360704700235B60FFDE5C7B0000FE
:104400005F2800F01F034FEA50110DD8094A52F8F7
:10441000212002EB8302D2F88010074B0B4043F0BF
:104420000303C2F8803070470022203352F8233053
:10443000FFDE00BF5C7B0000F0F0FCFF2DE9F74FD2
:1044400091F8393006460C4690F804800D686BBB35
:104450005023DFF83491681C03FB0893DF6C47F0AE
:104460000072DA6405D02846FFF7B8FF2846FFF748
:10447000C7FF6068411C01D0FFF7B8FE94F82C30EC
:10448000012B13D1502303FB0893E06847F020670A
:10449000421CDF6401D0FFF7A9FEA1684B1C05D0C8
:1044A0000846FFF79BFF0846FFF7AAFF94F838E09D
:1044B000BEF1000F07D15022334B02FB0833DA6CF8
:1044C00042F08072DA64D4E90183278EB4F832A016
:1044D0000093E36894F82D9094F82E10A08E94F831
:1044E0002CC0E28EDFF8A4B0019347EA0A073368D4
:1044F0003843A66A41EA09015B4542EA00024CEAF8
:10450000010108BFF6080A43C3F82465C3F86C2507
:10451000BEF1000F0DD1BCF1010F08BF009AC3F826
:104520000456C3F80C8602BFC3F81026019AC3F8DC
:104530000826002194F83B20C3F84C11D3F84C0115
:10454000C3F86811D3F86801C3F81411D3F8140143
:10455000C3F82411D3F82401C3F830110C48D3F860
:1045600030115201C3F30F31C3F30833D2B2C41870
:1045700084F80023012201F01F015B098A4040F802
:10458000232003B0BDE8F08F3CCB002000A00450F6
:1045900000E100E05F2800F01F034FEA50110DD842
:1045A000094A52F8212002EB8302D2F88010074B0F
:1045B0000B4043F00203C2F88030704700222033E2
:1045C00052F82330FFDE00BF5C7B0000F0F0FCFF00
:1045D0002DE9F3479046502290F80490464E02FB96
:1045E00009FA06EB0A040D4694F84810074600291C
:1045F0006FD109EB890006EB00100AF072F92B6904
:10460000AA6946F80A306B69A36302B1013A5023E4
:1046100003FB0963DA632A6A3C68042A81BFEA69FA
:104620009A610022DA61D4F8003243F48023C4F89E
:104630000032502303FB09660123D4F85021C6F849
:10464000048086F84830EAB929463846FFF7F6FE76
:10465000082200233C688DF80730C4F800250DF1CE
:104660000702C4F83C27C4F8403701230A25236514
:104670006365D4F8303173BB0120FFF7A7FD013D1E
:10468000F7D120E008226426C4F80025E362D4F8BC
:104690002431E3B9D4F81431CBB90A20FFF796FDE1
:1046A000013EF4D10023C4F85031D4F85021C4F8AD
:1046B0004C31D4F84C21C4F82431D4F82421C4F866
:1046C0000035002EC0D10D4802B0BDE8F0870126AC
:1046D000E8E70B48F8E70023C4F868319845D4F8B8
:1046E0006821C4F80035074B08BF00233A68064824
:1046F000C2F80433E8E700BF3CCB00200100AD0B5B
:104700000C00AD0B200218000000AD0B2DE9F047A6
:1047100084460F469E4616460579002A51D04FF032
:10472000500ADFF8AC80D0F800900AFB058ADAF86E
:10473000044074B96BB9DAF82C50002D43D1CAF893
:104740002C20FFF76FFD0446CAF82C502046BDE828
:10475000F0871EF0030F07D0734632463946BDE896
:10476000F0476046FFF75EBD07F06043B3F1005FBE
:104770004FF0500414D104FB058400F07BFBE26A87
:104780001AB1144C00F07EFBE0E7C4E90A7605EBB1
:104790008505484608EB051101F035FA0E4CF1E7A6
:1047A00004FB0584A36B83B100F064FBE36A002B78
:1047B000E7D1E36C012243F00203C4E90A76E36423
:1047C000E5E7064CC2E7034CC0E7054CBEE700BF77
:1047D0003CCB00200B00AD0B0000AD0B0600AD0B79
:1047E0000A00AD0B2DE9F84350230679284D0468E3
:1047F00003FB0653D4F80473DA6AC4F8087322B9C9
:104800002448C4F80473BDE8F88306EB860005F17C
:104810004C024FEA001802EB0012D2E8EFCF4CF046
:10482000080CC2E8E0CF0028F7D10122626531B35D
:10483000D96C01EA02094946204601F095F90028A1
:10484000FAD000F017FBB9F1000F1CD1D4F8683191
:1048500053B101236365D4F83031002BFBD02046DF
:1048600005EB080101F0C4F900F00CFB0023C4F8CB
:104870006831D4F86821502202FB0655EB620648E5
:10488000C4F80473BFE7D4F83031002BE7D1EBE76D
:104890003CCB00200500AD0B0000AD0B2DE9F8432B
:1048A00090F804804A4E08EB88073F0107F14C0559
:1048B00004683544D5E8EF3F43F48052C5E8E02F63
:1048C0000028F7D1DA047FD44B0705D5502303FB2A
:1048D00008639B69002B79D03E4B3744C4F80833FA
:1048E0000823C4F800350023C4F84C31D4F84C2117
:1048F000C4F85031D4F85021C4F824310A03D4F854
:1049000024318B0303F4804302F400524903134320
:1049100001F400410B43D5E8EF2F1A43C5E8E12F1E
:104920000029F8D14FF0500909FB0869D9F808307F
:10493000EBB9D9F8043093B9502303FB0863DB6C5F
:10494000D8043FD5D5E8EF3F23F47F0323F4704329
:10495000C5E8E23F002AF5D11F48BDE8F8830321EE
:10496000384601F00EF9D9F80830002BE4D0D4F81D
:104970000433D90613D5502303FB08635A6872B178
:10498000DB6C1A030BD5D5E8EF3F23F40023C5E811
:10499000E23F002AF7D10621384601F0F2F8502311
:1049A00003FB0863DB6CDB040CD5D4F850310BB986
:1049B0000123A362502303FB0866736813B1054B00
:1049C000C4F804330548C8E70548C6E70548C4E706
:1049D0003CCB0020200218000200AD0B0000AD0B04
:1049E0000B00AD0B0800AD0B2DE9F84F502390F8EC
:1049F00004905B4E046803FB09631746DA6CD4F835
:104A000004A350038846C4F808A300F1A38001F072
:104A10006041B1F1005F40F09F80996859B15B68D7
:104A2000002B40F08380D4F84C1100297ED0C4F8CC
:104A30004C31D4F84C31502505FB0965EA6909EB86
:104A4000890BC5E902874FEA0B1B002A49D0974220
:104A500035D84FF000093A46A9694046C5E90299A0
:104A600009F01AFFEA69A869D21BC119EA6109F0C5
:104A7000DDFE6B6823B93B48C4F804A3BDE8F88F9A
:104A8000EB6C5E44990414D5374B5B44D3E8EF1FBD
:104A900041F48021C3E8E21F002AF7D13A4641469B
:104AA000304601F07FF84A4631462046FFF75CFB6E
:104AB000E1E73A464146304601F074F8DBE740460C
:104AC000A96909F0E9FEEB696B620023EB61264BF3
:104AD0005B44D3E8EF1F41F40021C3E8E21F002A42
:104AE000F7D1502303FB0963586ADA689968DB6CD5
:104AF000121A0144C4F80417C4F80827DA04BAD516
:104B0000194B5B44D3E8EF1F21F48021C3E8E21F77
:104B1000002AF7D10123A362D4F82431002BAAD0B4
:104B20000023C4F82431D4F82431A4E7502303FB34
:104B30000966336993B95304C4F80487C6E9048746
:104B4000C4F8087797D5D4F8003243F02003C4F8AE
:104B5000003290E705488FE705488DE705488BE769
:104B60003CCB00200000AD0B88CB00200500AD0B36
:104B70000A00AD0B0B00AD0B50232DE9F0414E4D5B
:104B800090F80480046803FB0853D86CD4F80072D2
:104B900000F48220B0F5805F05D009B10022DA610F
:104BA0004648BDE8F081D4F80463C4F8086309B945
:104BB000BB0652D44FF4A111D4F8003223F02003E5
:104BC000C4F80032502303FB08574C37D7E8EF0FE7
:104BD0000843C7E8EC0FBCF1000FF7D122B903FB83
:104BE00008535B68002B63D1354BC4F808330123AD
:104BF000E362D4F82431002BFBD00023C4F85031F9
:104C0000D4F85021C4F84C31D4F84C21C4F82431E4
:104C1000D4F82421502202FB0852D16C11F4004137
:104C20001ED1D161204600F0D1FF502303FB08556F
:104C30000023AB602B61D7E8EF3F23F47F0323F41D
:104C40007043C7E8E23F002AF5D126F4C01626F4E7
:104C500008761C48C4F80463A3E74FF48031B1E739
:104C60009269C4F85031D4F85011C4F804270522D1
:104C7000C4F80827C4F84C31D4F84C310123E3615F
:104C8000D4F84C31002BFBD00023C4F84C31D4F8BD
:104C90004C31D4F850210AB1D4F80C27502303FB2F
:104CA0000853DA610023C4F85031D4F85031B9E721
:104CB0000123E362CDE700BF3CCB00200500AD0B34
:104CC000200218000000AD0B2DE9F8430125036810
:104CD0002F4A06792F4FC3F80823C3F30431C3F3D7
:104CE000434205FA01F12032044647F82210BFF38F
:104CF0004F8FBFF36F8FD3F80022294622F4802212
:104D0000C3F800222A46FFF737FF29462046FFF75F
:104D100069FD50212279204D236801FB0252D46C99
:104D2000D3F80406E201D3F80C96D3F81076D3F842
:104D3000088609D54FF0FF32C3F80426C3F80C26C5
:104D4000C3F81026C3F80826A30116D5411C01D0CC
:104D5000FFF720FCB9F1FF3F02D04846FFF71AFCED
:104D600022010AD5B8F1FF3F02D04046FFF712FCFE
:104D70007B1C02D03846FFF70DFC5023002203FBBA
:104D80000653DA6483F848205A60BDE8F88300BF10
:104D90002012180400E100E03CCB002010B55024A4
:104DA00002790E4B04FB02335B689BB90368D3F8AE
:104DB0000025082A05D011B1D3F80C370B6008483C
:104DC00010BDD3F84C213AB111B1D3F80C370B60B8
:104DD0000448F5E70448F3E70448F1E73CCB00203A
:104DE0000C00AD0B0000AD0B0800AD0B0B00AD0BC4
:104DF0002DE9F34105461646FFF7F6FD184B04462C
:104E0000984226D10321284695F80480FFF746FDF5
:104E1000144FB84201D0A0421FD15022124B02FBC6
:104E200008335B68ABB90193284601A9FFF7B6FFC9
:104E3000B842F9D00D4B98420AD0019BB34207D338
:104E400001222846114602B0BDE8F041FFF794BEAA
:104E5000074C204602B0BDE8F0810446F9E700BFE8
:104E60000000AD0B0B00AD0B3CCB00200C00AD0BDC
:104E70000800AD0B72B6024A136801331360704725
:104E80008CCB0020034A1368013B136003B962B660
:104E9000704700BF8CCB002000487047A47B000007
:104EA0001FB50D4A01AB10685168128903C31A80FF
:104EB0000123002101A88DF8043000F0C1F8074B50
:104EC000984206D00C33984208BF002005B05DF828
:104ED00004FB0020FAE700BFBC7B00000000AD0B24
:104EE000F8B58507144618D10D4DA84215D82D1ACE
:104EF000B5EB820F11D30B4ED6F80075D6F80055DE
:104F000007F00107C6F8007500F072F8204605F4B6
:104F10007C553D43C6F80055F8BD6FF00400FBE733
:104F20000050160000B0045038B50346094D08463D
:104F3000AB4214460AD8ED1AB5EB840F4FEA820251
:104F400004D3194609F0A8FC204638BD6FF00400D0
:104F5000FBE700BF0050160070B504784378418825
:104F60000679C288057A44EA0324174B41EAC671E0
:104F700042EA0542C3F80045C3F80C15C3F81025F2
:104F8000D3F80424D207FBD5104A1268CAB1002115
:104F9000427AC3F80C11D3F80C01C3F80411D3F80A
:104FA0000401C3F80811D3F80801C3F80011D3F8BD
:104FB00000315301064ADBB282F84B334FF40063F1
:104FC0009360044870BD00BF00B004507CD700203F
:104FD00000E100E00000AD0B044B40EA0120C3F803
:104FE0000005D3F80024D207FBD5704700B0045069
:104FF0002DE9F04104460D461646DFF840800120B9
:10500000D8F80075D8F8001507F00107C1F305219D
:10501000FFF7E2FF04EB86062B1FA64204D13846B9
:10502000BDE8F041FFF7D8BF53F8042FD8F80404C7
:10503000C007FBD544F8042BEFE700BF00B00450D5
:1050400010B5074C237943B92160FFF785FF054B65
:10505000984201D10123237110BD0348FCE700BF32
:105060007CD700200000AD0B0C00AD0B003A18BF40
:105070000122003918BF012103688900074841EA6D
:105080004201186359605A6842F001025A60BFF346
:105090004F8FBFF36F8F0020704700BF04AAFF003F
:1050A0000123084AC2F8043302F58022C2F804330F
:1050B00002F58022C2F8043302F58022C2F80433DC
:1050C000704700BF000004500D4BD3F8000103F5FA
:1050D0008023D3F8003183B9003818BF0120800045
:1050E000084BD3F80031002B074B18BF0420D3F82E
:1050F0000031002B18BF042070470420F0E700BFE8
:105100000000045000000C50000010500122024B1F
:10511000C3F80423704700BF00100450034BD3F8BA
:105120000001003818BF0120C00070470010045073
:105130000022034BC3F80021D3F80031704700BFB1
:105140000010045000230A4AC2F80031D2F80021AE
:10515000084AC2F80031D2F80021074AC2F80031EB
:10516000D2F80021054AC2F80031D2F80031704768
:10517000000004500000085000000C5000001050C7
:105180000022104630B50749074C51F8043BD3F8CC
:1051900000511DB1D3F80404234018430132042AFE
:1051A000F3D130BDC87B00000000FFFF10B5FFF752
:1051B0008BFF0D4C4207206002D5FFF7E1FF6060D6
:1051C000FFF7ACFF236818430307206006D5074BA1
:1051D000D3F800246260D3F80434A3601621BDE83C
:1051E0001040034800F084BC84D700200010045015
:1051F000D87B00000C22014909F04EBB84D7002067
:1052000038B5044600B30B291ED9114D2868431C3C
:1052100002D143F6DA3038BD78B108220D49204674
:1052200009F03AFB04220A4904F1080009F034FBB2
:105230002B68002001332B60EDE70822054905F0BB
:1052400047FF0028E9D0E4E74CF2DA20E3E700BFAB
:1052500090D70020C1D700202DE9F04FADF50D7D8E
:1052600004468946174600211C2206A81D46969E24
:105270009DF8648209F035FB4FF4EE72002115A809
:1052800009F02FFB10230593002C72D0236813B96B
:105290006268002A6DD1A26812B9E268002A68D15A
:1052A000226912B96269002A63D1979A002A60D0F4
:1052B000989A0F2A5DD9B8F1000F01D0BE4258D399
:1052C0004FF0200B0DF1340ACDF808B0CDF804A052
:1052D0006268022000920022114609F0F7F80028C7
:1052E0004AD14FF44072264B06A9CDE90823254A3E
:1052F000009306925B46524615A8B8F1000F2CD0D9
:105300000BF021FD28BBD4E9041215A806F002FA1F
:10531000F8B9D4E9021215A80BF02FFDC8B904ACF6
:105320002B463A464946CDE9006415A80BF031FDFD
:1053300078B92268A918B21AB8F1000F10D005ABDD
:105340000293989B15A80193979B009323460BF01B
:1053500053FD0DF50D7DBDE8F08F0BF0FFFCD1E79F
:10536000989B15A80193979B009323460BF077FD1C
:10537000EFE74CF2DA20ECE743F6DA30E9E700BF7A
:105380000005100504200001F8B502F039FA0446C2
:1053900080BB09F0FBF850B93221194800F0A8FB96
:1053A00009F03EF940BB0A21164800F0A1FB164A5D
:1053B0002721D368154823F008031B041B0C43F076
:1053C000BF6343F40033D36000F092FB00220C2152
:1053D0000F4800F039FE002501260E4F06FA05F3AE
:1053E0009B0704D02A460621384600F02DFE0135E1
:1053F000202DF3D12046F8BD45F22354FAE700BF33
:10540000EE7B0000207C000000ED00E02A7C000024
:10541000517C00005D7C0000024B1860024B0020B4
:105420001960704798D7002094D700201FB5274CEB
:10543000426923685A6282699A62C269DA62026AC0
:105440001A63426A5A63826A9A63C26ADA63026BB7
:105450001A64426B5A60826B9A60C26BDA60026CAB
:105460001A61426C5A61826C9A61C26CDA61026D97
:105470001A62826D5A65C26D9A65026FDA65026EB4
:105480001A66826E5A66426F9A66EFF388825A6491
:10549000EFF389829A644268DA64EFF394821A65C2
:1054A000026801A81A67FFF7A5FE2368019ADA6669
:1054B00001221A70064B1C686408640020462146CD
:1054C000224623460DF009F804B010BD98D70020FD
:1054D00094D7002000B5A1B001A8FEF7D3FB029B32
:1054E00063B15B060AD4019B23F00203052B05D1AF
:1054F000044B1B6813B101A8FFF798FF21B05DF8BA
:1055000004FB00BF94D70020BFF34F8F0549064B23
:10551000CA6802F4E0621343CB60BFF34F8F00BF51
:10552000FDE700BF00ED00E00400FA05274B284A24
:1055300028481A6041F6F873D0F82416C1F308021F
:1055400003EA5133132182F48072883201FB023363
:10555000214A590ADB0548BF0131C2F80419D0F8C5
:1055600020364FF47A60C3F30801C3F30943434381
:1055700042F21C5081F4807101F2172100FB0133CB
:105580004FF47A701B0AB3FBF0F100FB1133B3F553
:10559000FA7F28BF01310F4BC2F81C17D3F8401314
:1055A0001C290CD1D3F84433012B08D13423C2F881
:1055B0002436D2F83C3623F40023C2F83C360122CC
:1055C000054B0020C3F80026704700BF20C4002010
:1055D0000020A10700C0FF0000001250F8B5C0F382
:1055E0000B0686B920F47F650A4F25F00F05441895
:1055F000AC4201D83046F8BD2846FB69984728B927
:1056000005F58055F4E74AF2C536F3E743F65C2624
:10561000F0E700BF787B00002DE9F74FDFF864A0CA
:105620008346DAF804300F46154698470024164B97
:10563000C0F3410013F82090DFF8508004F180039C
:10564000AB4294BF80262E1BB6FBF9F24146DAF836
:10565000143004EB0B000192984700280EDB414602
:10566000DAF81830019AE0199847002806DB34442C
:10567000A542E3D8002003B0BDE8F08F43F65C20DC
:10568000F9E700BF787B0000647C0000C9D70020E8
:105690002DE9F3471B4D81466B680F46144698472A
:1056A000194BC0F3410013F820A0B9FBFAF60AFB2E
:1056B00016961EBB6CB1D5F81480B4FBFAF509F54B
:1056C00084292A4639464846C047002805DA43F669
:1056D0005C26304602B0BDE8F0870AFB05F5641B86
:1056E000F7D0012201A909EB0500C0470028EEDB35
:1056F000224601A9781909F0CFF8EAE74AF2C5363F
:10570000E7E700BF787B0000647C00002DE9F04FE4
:10571000861806F6FF7525F47F6525F00F0585B020
:10572000B5F5805F0446019104D943F65C2005B0CD
:10573000BDE8F08FDFF86C81D8F804309847042278
:10574000594BC0F3410053F82070D8F81430574833
:105750000093FBB2B2FBF3F203A9009B9847039AB4
:10576000531C023208BF01230393002D34D024F4CC
:105770007F6B2BF00F0BA5EB0B010BF58420FFF7D4
:105780002DFF0028D3D1B5F5BE7FAA4628BF4FF420
:10579000BE7ADA4529D8B5F5BE7F5ED3FBB20427C1
:1057A000B7FBF3F7424D3A4629464048009B9847DD
:1057B000B6F5BE7F5CD8042203A93D4809F06CF819
:1057C000384B3A463A493B489B69984708B187426B
:1057D000ABD100F0BFFBAAE74FF480514FF4842017
:1057E000FFF7FCFE0028C2D0A1E70BF180039A4529
:1057F0002CBF4FF08009AAEB0B095FFA87F8B9FBC1
:10580000F8F82B494246009B0BF5862098475E45E9
:1058100016D909EB0B039C4212D2A3455A4638BF56
:105820002246111BA2EB0B009E4294BFC2EB060264
:10583000C2EB0302019B19441D4B184409F02CF8DC
:10584000184B42469B691A490BF58420984710B1C2
:1058500080457FF46AAFCB449BE74FF4BE724FF4B0
:1058600084214FF48620FFF7D7FE002896D05EE70C
:10587000B4F5C07F9FD2B4F5BE7F224638BF4FF447
:10588000BE72019B111BA2F5BE700B44B6F5C07F22
:1058900094BFC2EB0602C2F5C0721946284408F054
:1058A000FBFF88E7787B0000647C00007C3104000B
:1058B000C9D700207C2104002DE9F0414F4F86B06C
:1058C0000020BB68984700286ED104226946FFF784
:1058D000DFFE0446002875D104224FF4BE700DEBA4
:1058E0000201FFF7D5FE044600286BD1444D009B12
:1058F000AB4203D1019B013B033367D97B689847D7
:10590000404BC0F3410053F8206004224FF4805014
:1059100004A9FFF7BDFE0446002853D1042241F23A
:105920007C1005A9FFF7B4FE044600284AD1049B69
:105930004FF48051AB424FF4842012D1059B013BC0
:1059400003330ED8FFF74AFE044600283AD14FF43D
:1059500080524FF484214FF48620FFF75DFE044609
:1059600030E0FFF73BFE044660BB0146802226483C
:1059700008F0B7FFF3B28026B6FBF3F6DFF88880B5
:1059800004F5842032464146BB6980349847B4F51B
:10599000805FF5D300F0DEFA044698B9042202A92C
:1059A0000295FFF7B3FE10B143F65C240AE0012331
:1059B00004224FF4BE7003A90393FFF7A7FE044629
:1059C0000028F1D1204606B0BDE8F081042241F262
:1059D0007C1005A9FFF75CFE04460028F2D1059B68
:1059E0005A1E033206D8019A934203D30233E9D1F7
:1059F000012AE7D100F0AEFAB1E700BF787B0000E2
:105A00001281DEC0647C0000C9D700201E2811D896
:105A100001230A4A8340134208D113F0980F07D19B
:105A20001D2807D1402300200B6070472023FAE790
:105A30000423F8E74CF25A30704700BF650F00406E
:105A4000436870B50C2B01D0022070BD4B68042B4D
:105A5000FAD14FF0FF3305680E68296833600029DA
:105A6000F2D0AA68002AEFD00623012001F01CFD25
:105A700004460028E8D16968064B9942E4D9AA682F
:105A8000054B88189842DFD8286808F005FF2046A3
:105A90003460DAE7030508E0080508E0436810B55C
:105AA0000C2B14D14B68042B11D10A680121036817
:105AB000116018680C49884209D102211160996867
:105AC000032904D15B6813F0020002D011600220A8
:105AD00009E00649D1F81845634003F00303634029
:105AE000C1F81835106010BD18B5045000B004504E
