:020000024000BC
:1080000010A1012011910500A9AA0600FD9005000C
:10801000FD900500FD900500FD900500FD90050018
:108020000000000000000000000000008992050030
:10803000FD9005000000000015920500FD90050070
:108040000D9405000D9405000D9405000D94050098
:108050000D9405000D9405000D9405000D94050088
:108060000D9405000D9405000D9405000D94050078
:108070000D9405000D9405000D9405000D94050068
:108250000D940500EBF306000D9405000D94050048
:108260000D9405000D94050035F406000D940500ED
:108270000D9405000D9405000D9405000D94050066
:108280000D9405000D9405000D9405000D94050056
:108290000D9405000D9405000D9405000D94050046
:1082A0000D9405000D9405000D9405000D94050036
:1082B0000D9405000D9405000D9405000D94050026
:1082C0000D9405000D9405000D9405000D94050016
:1082D0000D9405000D9405000D9405000D94050006
:1082E0000D9405000D9405000D9405000D940500F6
:1082F0000D9405000D9405000D9405000D940500E6
:108300000D9405000D9405000D9405000D940500D5
:108310000D9405000D9405000D9405000D940500C5
:108320000D9405000D9405000D9405000D940500B5
:108330000D9405000D9405000D9405000D940500A5
:108340000D9405000D9405000D9405000D94050095
:108350000D9405000D9405000D9405000D94050085
:108360000D9405000D9405000D9405000D94050075
:108370000D9405000D9405000D9405000D94050065
:108380000D9405000D9405000D9405000D94050055
:108390000D9405000D9405000D9405000D94050045
:1083A0000D9405000D9405000D9405000D94050035
:1083B0000D9405000D9405000D9405000D94050025
:1083C0000D9405000D9405000D9405000D94050015
:1083D0000D9405001FF406000D9405000D94050092
:1083E0000D9405000D9405000D9405000D940500F5
:1083F0000D9405000D9405000D9405000D940500E5
:108400000D9405000D9405000D9405000D940500D4
:108410000D9405000D9405000D9405000D940500C4
:108420000D9405000D9405000D9405000D940500B4
:108430000D9405000D9405000D9405000D940500A4
:108440000D9405000D9405000D9405000D94050094
:108450000D9405000D9405000D9405000D94050084
:108460000D9405000D9405000D9405000D94050074
:0C8470000D9405000D9405000D9405000E
:10848000084B1B78002B4FF00003836018BF0222BB
:10849000036008BF0122044B4360FF23C2710372D3
:1084A000704700BFB83D012028010800064A074B6D
:1084B0001B7902604FF4B472C371FF2382800822DB
:1084C00003728271704700BF256C0500B83D012022
:1084D0002DE9F341C41D0028064624F007040CBF13
:1084E0000020204600F0FCFC071E04DA6FF00B00B1
:1084F00002B0BDE8F0810EB9FC42F7D4364D69896F
:10850000288903316B7B03302A7B89B280B20BF060
:1085100022FD0028EADB3C44A978EB78002E04F128
:108520000304194424F0030400FB01F10CBF0020F4
:10853000204600F069FE20440EB90028D6DB2B79D6
:108540000446B3B1697D19446B791944FF29CDDC28
:108550000330002E2A8AC9B220F003040CBF002089
:10856000204600F0A7FE0028C0DB04440EB9002C12
:10857000BCDB012000F0AAFCC8B1A97BB9B195F819
:108580002C300734002B24F0070415BF402325238B
:108590004FF481722822002E14BF2046002003F0E1
:1085A000C9F80028A2DB04440EB9002C9EDBAB7C8A
:1085B000DBB12B7993B10734002EA97C24F007049A
:1085C0000CBF0020204605F0C3FD00288EDB0444CC
:1085D0005EB9002C09DA89E7B83D0120012000F0DE
:1085E00075FC10B1AB7B002BE5D1724B1B6893B1CE
:1085F000A97981B10334002EEA7C24F003040CBF76
:108600000020204698470028FFF670AF044416B9B2
:10861000002CFFF66BAF684B1B688BB1297D79B1DD
:108620000334002E24F003040CBF0020204698479A
:108630000028FFF65BAF044416B9002CFFF656AFD6
:108640005E4B1F68B7B1697DA1B10334002E2B7E4C
:1086500024F0030408BF0020009318BF2046EB7DE0
:10866000AA7DB8470028FFF641AF044416B9002C94
:10867000FFF63CAF072000F029FC98B1A97989B139
:108680000334002EAA7E24F003040CBF00202046F1
:1086900000F0FEFE0028FFF629AF044416B9002CB6
:1086A000FFF624AFB6FA86F795F825007F09A0B14A
:1086B0000334EB7F297F24F0070419443B4644F040
:1086C0000404C9B2224600F025FF0028FFF60EAFD1
:1086D000044416B9002CFFF609AF95F826100029BE
:1086E00059D00734002E2A8D24F007080CBF002033
:1086F00040460BF045FC041EFFF6F8AE444416B9A4
:10870000002CFFF6F3AE1EB1298D404608F07EFC2A
:1087100095F82010002940D095F82430002B3CD04B
:108720006A8C0734002E24F0070802F124020CBFE3
:108730000020404692B20BF023FC041EFFF6D6AE9A
:10874000444416B9002CFFF6D1AE0334AB7F297F29
:1087500024F0070495F8240019443B4644F004042F
:10876000C9B2224600F0C8FE0028FFF6BFAE04449E
:1087700016B9002CFFF6BAAE3EB16A8C404695F8A9
:108780002010083292B208F047FC2B6B5BB176B137
:108790002C630020ACE68846B5E7002EF5D0002219
:1087A00011461046EFE7002EF3D12046A0E628340C
:1087B000FBD59BE6643001206C300120683001203D
:1087C0001FB572B6194B5D6BE5B9BFF34F8F1849F2
:1087D000184BCA6802F4E0621343CB60BFF34F8FBB
:1087E00000BFFDE7B4FBF6F4D3B20132002CF9D19F
:1087F00003F110026A4402F80C4C0A2233B901A8B2
:10880000A847E2E7044600220A26EDE7013BDBB277
:1088100003F110040DEB0406B0FBF2F402FB1400AC
:10882000303006F80C0C2046E8E700BFB83D0120C8
:1088300000ED00E00400FA0513B5114C6846637BB7
:108840008DF80130237B8DF800306389ADF804305A
:108850002389ADF8023004F085FD18B1DB21032037
:10886000FFF7AEFF207E04F0CDFD08B1DE21F6E774
:10887000E07D04F0C1FD08B1DF21F0E702B010BDDA
:10888000B83D012070B50546002850D00AF0E6FB3F
:1088900018B94FF0FF34204670BD08F0BBFFB0F5AB
:1088A000FA7FF6D8234C032623486563002500F0A1
:1088B00089FA2A222946A01C84F83850257084F8A9
:1088C0002C5025630FF045F840F2011301212A4690
:1088D000A67363801B23084621712381638140F2C4
:1088E0000323A176A3811F2323824FF402736382A3
:1088F00044F60113E382F7236384FB23238503F00B
:108900006DFE20B140F24F313046FFF759FF03F0C2
:1089100081FE044610B140F25231F5E7EFF31085C5
:1089200072B600F021FE002DB5D162B6B3E76FF04C
:108930001504B0E7B83D01203988040038B5144665
:10894000002840F0D080694D95F83830032B00F0B6
:10895000C780B9B112B96FF0150038BD01391629B9
:1089600000F2C180DFE801F00C1D20355F68863B16
:108970006B6E804147555A8C8F9DA0A395A6AA0087
:108980001378AB700020FFF7A3FD0028B7BF0123C9
:1089900002236FF00B0085F83830A8BF85F8383017
:1089A000DBE71378EB70EDE71379002BD3D0537925
:1089B000002BD0D01288FB2ACDD81A2A6388CAD9B6
:1089C0001B3BE02BC7D82368A288AB60484B9A803A
:1089D000D8E713786A799342BDD32B71D2E7137825
:1089E0002A799342B7D86B71CCE713782A799342EE
:1089F000B1D86B75C6E71378002BACD05378013B28
:108A0000DBB2F82BA7D813889278EB82394B9A7097
:108A1000B8E71078687607F021F9B3E71378002BF0
:108A200099D0AB76AEE7012000F050FA237808B178
:108A3000012B90D9AB73A5E713882B82A2E713789B
:108A4000AB719FE7072000F041FA10B92378012BA2
:108A500081D9072000F03AFA18B12378002B3FF4AF
:108A60007AAF2378EB748DE71378082B3FF673AF5A
:108A70002B7587E71388FF2B3FF66DAFAB7481E74B
:108A80001378EB767EE713780E2B3FF664AF2B77E7
:108A900078E72368184A2B6263685360238913813F
:108AA00070E713786B776DE71378EB776AE71378E5
:108AB000AB7767E7137885F82A3063E792786178B7
:108AC000207803F08BFD00287FF447AF6378012BFB
:108AD0007FF658AF08F092FA00287FF453AF3AE7D8
:108AE0004FF0FF3039E76FF02C0036E7B83D01203A
:108AF000C03D0120CE3D0120D83D0120F8B50D46F6
:108B0000064630B329B311F0070422D1124F97F86B
:108B10003830012B02D16FF00B00F8BD032B02D1CE
:108B20004FF0FF30F9E700F085F80028F8D028462C
:108B3000FFF7CEFC0028EEDB0EF08FFA3046396BE3
:108B400004F0B8FCFFF778FE0323204687F838309E
:108B5000E3E76FF01500E0E7B83D012010B5074CE2
:108B600094F83830032B03D104F0C0FC05F010FA60
:108B70000BF04EFB002084F8380010BDB83D0120FA
:108B800050B1074B03F1140253F8041B934240F811
:108B9000041BF9D1002070476FF01500704700BF2B
:108BA00076290700074B10B593F838403CB904F01C
:108BB00053FC0320044900F081F9204610BD4FF01A
:108BC000FF30FBE7B83D0120AD84040038B5094D06
:108BD00095F8384054B904F059FC0120064900F0DA
:108BE0006DF90123204685F82C3038BD4FF0FF3059
:108BF000FBE700BFB83D012081840400054B10B5A0
:108C000093F838401CB90DF045F9204610BD4FF0DF
:108C1000FF30FBE7B83D012002680020014B1A60DD
:108C2000704700BFF43D0120014B1B68184700BF8F
:108C3000F43D0120024B1868003818BF012070472E
:108C4000F43D0120F7B504462D4E071D2C48376032
:108C500005F0AEF90228054606D1294920460AF05A
:108C60008BFC284603B0F0BD042842D13378092B91
:108C70000AD0262B1ED0314620460AF0F7FCB0F56C
:108C8000817F2DD3722112E005213E200AF066FC7F
:108C90000028F0D1F37801A93279684643EA02232B
:108CA000ADF800300BF089F80028CFD05321082010
:108CB000FFF786FD1A213E200AF050FC0028DAD189
:108CC0007368694601A8C3F30F23ADF8043011237C
:108CD0008DF806300BF093F80028B7D06521E6E751
:108CE0000028B3D0A17820780AF038FC0028B8D149
:108CF000ACE70828B5D1024920460AF075FCB0E778
:108D0000F83D0120074B4FF0FF3141F6FF72C3E9F8
:108D1000001205490022C1E900221F21C3E9021205
:108D2000704700BF00300120FC3E01203F280CD8D6
:108D300001380B4BC0F3421200F01F0053F82230F1
:108D400023FA00F000F001007047FF2806D04038F9
:108D5000044BC0F3421200F01F00EFE70120704700
:108D600000300120FC3E0120074B014600684968A5
:108D70001A4603C240F48C221A6041F0107242F489
:108D8000FF625A60704700BF003001200246024B6C
:108D90000068516803C3704708300120FD28084B64
:108DA00016BF00F1FF303F20C0B2420900F01F00A3
:108DB00003EB82039B6823FA00F000F00100704788
:108DC00000300120014B1860704700BF043F0120B4
:108DD00010B5FFF797FF0CF0A1FB034B04461B688F
:108DE00003B19847204610BD043F012070B50C88A0
:108DF000C27CA6B2C4F30E04931C058804F11802C9
:108E00001D44825AADB21A4443882A44013AB2FB47
:108E1000F5F202FB054292B29342044B8BBF334002
:108E2000B34313439BB20B8070BD00BF0080FFFFB4
:108E30004A1E062A08B50346084604D84FF4D171E5
:108E40001520FFF7BDFC094A914202D940F2A31157
:108E5000F6E711B903B1196008BD2BB11B680022F8
:108E6000C3E901211A1D1A600430F5E7FAFFFF7FFC
:108E700010B5114B00EB41041A786389B3FBF2F390
:108E800003FB0223013A1A44B2F5706F027928BF3E
:108E900000231A448378B2FBF3F0194403FB10203B
:108EA000091AB1FBF3F003FB101313446FEA4343B9
:108EB0006FEA5343638110BD083F0120024B03EB6F
:108EC00080035960704700BF083F0120034B03EB4C
:108ED00080035868003818BF01207047083F012000
:108EE0002DE9F04F10F0070A85B0054604D040F296
:108EF00061111720FFF764FC544F04464FF0010B3B
:108F000007F14806B146B04657F8043B8DF80BA070
:108F10003BB101A898479DF80A30082B01D9E821F8
:108F2000E7E79DF80B1081BB05B13160B94506F14B
:108F30000406E9D12DB30023DFF814E111221E4607
:108F40008EF8003058F82200013A60B190F804A081
:108F50008178BAF1FF0F64D14FF000078E4207719C
:108F60003CBFCEB20123511CECD10BB18EF8006096
:108F7000112640F6FF6A58F82670002F63D1013E93
:108F8000F9D2601B05B0BDE8F08F9DF80AC04A1DFC
:108F9000BCF1020FE64604EB420438BF4FF0020E6C
:108FA00053000EF1FF300444CEF100002040BDF824
:108FB00008406444CCF1000C013C04EA0C04B4F514
:108FC000803F01D3F82194E775B1C31A33609970DB
:108FD0001C8083F803B09DF80C201A71019A4FEAA7
:108FE000124C1A81A3F806C004FB01049EE758F84E
:108FF0002C90B9F1000F06D099F804B0D34504BF06
:1090000099F802904F440CF1FF3CBCF1000FEEDAEE
:109010003944FF29A2D90BB18EF8006040F2271124
:1090200067E794460027F0E707EB410309F10109E0
:109030003846A3F80AA0FFF71BFF5FFA89F1BB7857
:109040008B42F1D89BE74FF00009F6E70C3F012077
:10905000083F0120034B03EB8003D86C00B18078FC
:10906000704700BF083F0120F8B54FF6FF73054673
:109070000380184B03EB8103D86CB8B18678037971
:10908000B3FBF6F206FB1233DBB219460A1D00EB06
:109090004202B2F902705488002F09DB0131B1FBA2
:1090A000F6F206FB1211C9B28B42EFD10020F8BDD7
:1090B000FF29FBD0C4F30E03C4782B8024B94FF4EE
:1090C000D5711720FFF77CFB5380BDE8F8400AF00C
:1090D00021BF00BF083F01201D4B03EB810370B58A
:1090E000DC6C054644B3030404D54FF4DC7117204F
:1090F000FFF766FB014620460AF0EFFEFF28014617
:1091000004D02046BDE870400AF004BFA078B5FB4B
:10911000F0F300FB1353DBB219460A1D04EB4206C1
:10912000B6F90260002E09DB0131B1FBF0F200FB61
:109130001211C9B28B42F0D1002070BDFF29FBD0C3
:109140008B4204EB42021CBF0023E3705580D8E73A
:10915000083F0120094B03EB8103014610B5DC6C8D
:1091600020460AF0BAFEFF28014604D02046BDE89A
:1091700010400AF0CFBE002010BD00BF083F012004
:10918000F8B5104B074603EB81030146DC6C204623
:109190000AF0A3FEFF28054611D0E688238953EA8A
:1091A000064606D0014620460AF0B4FE014638467F
:1091B000B04720462946FFF75BFE0020F8BD05209A
:1091C000FCE700BF083F012038B50E4B044682790A
:1091D00003EB8203D86C08B9052038BD8278E179A9
:1091E0009142F9D24B1CE37100EB41035D89B3F965
:1091F0000A30002BF3DBA5800AF08CFE20600020F3
:10920000EBE700BF083F012070B5044610F00300F3
:109210000E4603D04F211820FFF7D2FAFFF708FEC1
:10922000054624B1034831460460FFF701FE284695
:1092300070BD00BF9C3F01202DE9F14FDFF870B0F9
:109240001E4607460D46DBF8003090469DF828A0E4
:109250009DF82C901BB961211820FFF7B1FA5246F6
:10926000092140460AF0F0FD4A4684B20921304601
:109270000AF0EAFD81B2DBF8000021440AF009FEA1
:10928000386018B9286001B0BDE8F08F0444534637
:10929000414609222C6038680AF0B5FD4B46092288
:1092A0003146286801B0BDE8F04F0AF0ACBD00BF00
:1092B0009C3F01201F2AF8B5044613460ED89200A1
:1092C000033222F00303B3F5803F2DD2184DACB129
:1092D000A00710D05F210920FFF772FAFF2B4FEA99
:1092E000420204D9FF339A42A8BF1A46E8E77C2A13
:1092F000B8BF7C22E4E729706C602B8122F0030266
:1093000028230127120403FB01F06B680025120CCF
:10931000EEB28E4200D3F8BD14B126181F705E6005
:10932000104401352833F3E74FF0FF30F3E700BF77
:10933000A03F0120144A002138B553681478C8B200
:10934000844203D8AB210920FFF73AFA18460131CD
:1093500028330578002DF2D0002181700124128974
:109360008161051D44709208C16100F120014468CB
:1093700021F8022B994245F8044B1444F8D10023FC
:109380004361037038BD00BFA03F01200A4B1B8919
:10939000B3F5FF7F4FEA930006D25A089B1A9BB29F
:1093A000984238BF18467047B3F5EE6F01D8FF22D8
:1093B000F4E740F27263F3E7A03F01202DE9F843A0
:1093C0004B7880460C4602F0040602F0FB07D3B14E
:1093D000DFB12E4BD4F804901D89B7BB0123AD0833
:1093E0004A46211D637004F1280004F12003A7619F
:1093F000E76123F8025B984241F8042B2A44F8D134
:109400000023636101E0002FE3D0FF23A370002E4F
:1094100018BF0226A3191B7D032B03D1022F1CBFEB
:109420000136F6B2A31901221A7506F10C020023C7
:1094300004EB860624F812307268A3704046C8F820
:109440000020A8F80430BDE8F883002114226170E0
:10945000A0180EF07EFAB5F5FF7F0FD26B08ED1A5B
:10946000ADB209EB0502C4F804902584A2606384C0
:10947000C4F80C90A5842261E384C6E7B5F5EE6FCD
:109480004FF0FF03EBD940F27265EAE7A03F0120FD
:109490002DE9F84305460C46F720052191460AF0D0
:1094A000D3FC061E22DB1DB906FB04F0BDE8F883E1
:1094B00015F0030703D098211920FFF781F9DFF891
:1094C0003480C8F81050A5B2A8F81460BBB29D4211
:1094D000EAD9B8F814C04B46D8F810000522F72195
:1094E00007FB0C0001370AF08EFCEFE74FF0FF306E
:1094F000DCE700BFB43F012007B5CDE900230B46F0
:1095000003490246081D0AF05DFE03B05DF804FB46
:10951000CC3F012013B5064CCDE900230B46024693
:1095200004F1080104F10C000AF04CFE02B010BD79
:10953000CC3F012008B54B1E032B03D923219020DB
:10954000FFF73EF9002801F1010114BF0C230523A8
:10955000C9B203EB8101034B013121F00101197004
:1095600008BD00BFDC3F0120124B01224FF0FF304D
:1095700000211B685A60C3F80803C3F80015C3F83C
:1095800004250D4B1B685A6040F6FE72C3F80803B1
:109590004020C3F80015094B0949C3F80825C1F854
:1095A0008800BFF34F8FBFF36F8FC1F88801C3F8F6
:1095B000082570472C4F0120284F0120002008402B
:1095C00000E100E0014B1876704700BFE03F01204A
:1095D0002DE9F04104460E46154690F8383103F067
:1095E000FF071BB10C273846BDE8F08101464C4807
:1095F00008F0FCFF20288046F4D05822394604F5B4
:1096000088700EF0A6F984F81081C4F81461FF2365
:1096100084F8383136B104F025FD00F00700013040
:1096200086F8F40102234FF00008A4F8483184F8CA
:10963000408108F0F9F800F1490620460DF088FB5A
:109640000146B6B2D8B30CF0ABFC00F5CD612846AC
:1096500089B208F095F82844C4F844010DF0D5FF0C
:1096600030184FF00106A4F8268041F1000184F87B
:109670001861C4E9540120460DF080FBD0B1A5F279
:10968000AA45314620460DF0D7FA2D1AC4F81C51D0
:109690004FF0FF326FF00043C4E9562304F5A07188
:1096A00094F8100109F042F870BB4FF4E5713020D6
:1096B000FFF786F83046AE3D0DF059FCE5E7204651
:1096C000DFF860800DF0B8FAAE30C4F84401B8F8A5
:1096D000040048B1E08C38B104F0C4FCB8F80430A0
:1096E000B0FBF3F202FB130006440DF08EFF3618B8
:1096F00041F10001C4E95461002DC9D0AE1941F116
:109700000001C4E95661C9E7D4E954230021204689
:10971000C4E94A23C4E94C230DF059FB63E700BFB9
:1097200061420500CC400120F0B5002385B0CDE9B1
:10973000003303238DF806306846FFF745FD88B1F6
:109740001D4E01230027B3710223CDE902778DF866
:109750000E3002A8FFF738FD0546A8B10023B3710B
:1097600005B0F0BD00980AF035FEE5E790F81C0260
:1097700009F0F2FA94F81C0284F8045208F05CFF35
:10978000202384F81C32DFE7029B002BE1D093F802
:109790001C22202ADDD018884FF6FF739842DDD0B6
:1097A0000221FFF7D7FC04460028DFD14FF49A715D
:1097B0003020FFF705F800BFCC400120044B002209
:1097C000DA719A7142F210729A80FFF7ADBF00BF52
:1097D000CC400120014BD871704700BFCC40012024
:1097E000014B9880704700BFCC4001200D4B0321F6
:1097F000186830B50D4690F8A52090F84B4001321E
:10980000B2FBF5F303EB4303D31ADAB244FA03F3E2
:10981000DB0703D4013911F0FF01F0D180F8A52056
:1098200030BD00BFD8400120014B18680AF0B5BE1A
:10983000D840012008B504F035FA014B187008BD76
:1098400010300120054B10B41C68827C836804F141
:10985000420194F8410010BC0CF0A5BBD840012097
:109860002DE9F041064690461D460C46D9B91A4FDF
:10987000386800F15B0390F85A2000F1780190F805
:109880007E000CF090FB7A680346507908280ED0D1
:109890003A6892F84E100A1A504250413A6892F8CB
:1098A0005620012A05D1B36863B9012006E020469D
:1098B000F4E77AB9002BF6D10028F4D100F00100CA
:1098C000BDE8F081B8F1000FEFD11DB13046FFF7D0
:1098D000B9FFF3E70020F1E7D8400120024B1868F8
:1098E0006C3001F08FBF00BFD840012038B50F4C5D
:1098F000FFF7F4FF656801F03FFF636828601868B0
:1099000020B940F2F7413220FEF75AFF0AF07FFFFC
:1099100010B940F2F941F6E707F064F8002007F0CB
:10992000C3F8636804221A7138BD00BFD840012013
:1099300038B5194D04466B681B79022B04D940F6E3
:10994000EA013220FEF73CFF2B68027C83F8A4205A
:109950001A44C168996692F8242183F8202142684C
:10996000C3F88820037A022B0ED006F047FE07F0DA
:10997000C9F806F0EDF9094807F01EF8084807F0A5
:1099800015F8084806F0A4FE637C23B12B685B6ED3
:109990000BB101221A6038BDD840012014310120DA
:1099A00055555500D6BE898E08B5FFF743FF034BCA
:1099B000586801F073FF012008BD00BFD8400120A6
:1099C00038B505460C4603F0DDFD420704D4A37804
:1099D00003F0E003402B30D003F0D4FD830704D420
:1099E000A37803F0E003202B27D0237803F03F0374
:1099F000242B22D806F068FD94F90030A278002BC1
:109A0000637802F01F02ACBF1E214FF4967143EA47
:109A100002234B431A1AB2F5877F0ED398420CD813
:109A2000074B294618682388A0F82131A37880F8CD
:109A30002331BDE838400BF001BA002038BD00BF2B
:109A4000D840012008B5074B93F900207F2A04D1A4
:109A500040F29D313220FEF7B3FE02707F221A7071
:109A600008BD00BF1030012010B504788EB004F09E
:109A70000F0404A922460AF009FFFFF7DBFE042CBD
:109A800033D11B4C059A2368107893F878108842DC
:109A90002BD1507893F87910884226D1907893F89A
:109AA0007A10884221D1D07893F87B1088421CD15B
:109AB000107993F87C10884217D1517993F87D2062
:109AC000914212D19DF8212093F87E309A420CD118
:109AD0000DF10F00FFF7B6FF9DF90F3004A90093B9
:109AE000237B227A60680AF0A4FE03200EB010BD2A
:109AF000D84001202DE9F04F044689B0062900F234
:109B0000C780DFE811F06200E9000700C500C5006A
:109B1000C50028006F4D06F083FE2F6897F854307B
:109B20009E0701D1032036E06E68B379002BF9D08F
:109B30000DF11F00FFF786FF9DF91F30022221461D
:109B4000029330462B7A0193FF23009307F14203DF
:109B50000AF05FFEE6E75F4D6E68B379002B00F018
:109B600097802F6897F85420900717D50DF11F00A4
:109B7000FFF768FF9DF91F30304606220293214609
:109B80002B7A0193FF23009307F142030AF041FE71
:109B9000002309202B7309B0BDE8F08FD10777D5DA
:109BA000530701D506F03CFE0DF11F00FFF74AFFF9
:109BB0009DF91F202B6802922A7A42330192FF22DC
:109BC0000092062221466868C2E7424D2B6893F84E
:109BD0005420570737D56968CA79002A33D04268BC
:109BE00093F85B001678864255D1567893F85C005E
:109BF000864250D1967893F85D0086424BD1D67854
:109C000093F85E00864246D1167993F85F0086424B
:109C100041D1507993F8602090423CD1627C93F816
:109C20005A00161A7242724193F8560001284ED01B
:109C3000002A4CD193F84E30082B02D04A799A4230
:109C400045D006F0EDFD6E68B379002B3DD02F684E
:109C500097F85420900720D50DF11F00FFF7F2FE72
:109C60009DF91F3030460022029321462B7A019342
:109C7000FF23009307F142030AF0CBFD01230920E3
:109C80002B736B68DA79002A85D19B79002B82D1FE
:109C900006F0C6FD46E70022C6E7D10715D55207F4
:109CA00001D506F0BDFD0DF11F00FFF7CBFE9DF9BC
:109CB0001F202B68214602922A7A4233686801925B
:109CC000FF22009200220AF0A4FD0320D9E70A2017
:109CD000D7E700BFD8400120644D81686E682A68CC
:109CE000B379807C0493F37992F8488005930AF065
:109CF000FAFB92F8543088F0010807465B0740F100
:109D0000898092F84D30002B00F0848092F84E60EC
:109D1000082E00F08180304603F0A0FD002818BF17
:109D20008046002F7AD03046A16803F0D1FE064667
:109D30002B6893F841900EB149F0020993F8542032
:109D4000500746D5626893F85B101078884267D157
:109D5000507893F85C10884262D1907893F85D1047
:109D600088425DD1D07893F85E10884258D110793E
:109D700093F85F10884253D1517993F86020914253
:109D80004ED1617C93F85A20891AD1F1000B4BEB2C
:109D9000010B69684979082945D093F84E305A1A61
:109DA000D2F1000A4AEB020A002E3FD1B8F1000FAF
:109DB0003ED02046FFF746FD059B43B1296891F848
:109DC000561001294DD011B95BEA0A0349D106F0BA
:109DD00027FD2B6893F854309B073FF4A3AE06F0A1
:109DE0001FFD049B002B3FF49DAE2046FFF72AFD8C
:109DF00010B9D5F80080EEB10DF11F00FFF722FE7B
:109E00009DF91F202B68029242332A7ACDE90092F5
:109E10000122D7E676797BE7002689E73E4687E789
:109E20004FF0000BB5E74FF0000ABDE70120C3E794
:109E30003046C1E798F85520023A012A3FF672AE43
:109E4000002F3FF46FAE0DF11F00FFF7FBFD9DF9F2
:109E50001F3002932B7A0193FE23009308F14203F3
:109E6000D6E70028B3D00A2095E600BFD8400120ED
:109E70002DE9F04387B0174C06460F460DF1170049
:109E8000FFF7E0FD65682B79032B20D02B79062B9B
:109E90000CBF4FF003094FF00109236803F142089A
:109EA00006F00CFB9DF917303A463146CDF80C9080
:109EB0000293237ACDE900034346284601F022FDB0
:109EC00010B1606801F0BAFC07B0BDE8F0834FF054
:109ED0000009E2E7D84001202DE9F043324E87B077
:109EE00005460F467468A37923B90024204607B0BD
:109EF000BDE8F083D6F8008098F8953033B9037840
:109F0000002B0CBF0123022388F895302379062B00
:109F1000DAB224D0072A14BF4FF001094FF002092A
:109F20000DF11700FFF78EFD06F0C8FA9DF9173006
:109F30003A4629460293337ACDF80C90CDE90003D6
:109F400008F14203204601F0DDFC0028CDD06C78FA
:109F500014F0100406D1706801F070FCC6E74FF0F1
:109F60000309DDE7A9690220FFF72AFD0446B8B11D
:109F70000022336883F896206A696AB15178C1F388
:109F8000031183F897101178527802F00F0241EA1A
:109F90000222A3F89820A9E7FF2283F89720A5E7DB
:109FA000706801F07BFCA1E7D84001200D4A53689E
:109FB00010B51979022904D841F293413220FEF7F5
:109FC000FFFB1979082902D941F29441F6E71B7980
:109FD000126903F180439268033BBDE8104052F8D8
:109FE00023301847D840012010B5054C637A2BB1B7
:109FF00006F088FD05F0ACFE0023637210BD00BFC3
:10A00000D840012010B5054C23792BB106F07AFD1C
:10A0100005F09EFE0023237110BD00BF0048012003
:10A0200010B5094CFFF7E0FF012263681A710023A5
:10A030002268A2F8213182F82331FFF74FFC206813
:10A04000BDE810400BF0C6B8D840012008B5044B5D
:10A05000586801F023FCBDE808400AF0A6BA00BF2A
:10A06000D8400120062938B51C469DF8105019D952
:10A0700008291DD802B1DDB143689BB912B94378F4
:10A08000DB0617D40C4B5B6818680AF0E1FB00B1E3
:10A0900035B92CB903F004FC00F00104204638BDAA
:10A0A0000120F9E79DF81430002C08BF1C46F5E7A5
:10A0B0000024F3E70124F1E7D840012038B50D1E54
:10A0C000044614BF03200520104403F057FC094B3D
:10A0D000587270B15DB9033C012C94BF55245024D3
:10A0E00005F00EFE2046BDE8384006F0FFBC4024D7
:10A0F000F6E738BDD8400120F8B53D4CFFF7EEFB40
:10A10000656801F039FB63682860186820B940F27F
:10A1100054413220FEF754FB0AF079FB054610B992
:10A1200040F25641F5E7236893F8A6306BB12368F7
:10A130001A6D93F8A710C3F8102193F854200A431E
:10A1400083F85420002283F8A620206890F8A430D9
:10A15000034493F82471636880F820711A7952B12E
:10A160001B79012B07D000210AF068FE18B9BDE861
:10A17000F840FFF755BF23681E4A93F8A530D05C1E
:10A1800006F0CCFA236893F8A420134493F82461D2
:10A19000022E2BD004D8012E05D040F2FE71B8E774
:10A1A000F31E012BF9D801F0E1FA314606F0F6F979
:10A1B000284606F017FC3146012006F0B5FA7B1E52
:10A1C0002A46384659425941FFF778FF626808210C
:10A1D0000023517121722168D3801372E37281F8D8
:10A1E0009530A372237303231371F8BD0D20DCE7B0
:10A1F000D8400120C010070010B50A4C0521206886
:10A200000AF01CFE18B9BDE81040FFF709BF23682B
:10A21000012093F8201106F08FFC63680B221A715D
:10A2200010BD00BFD8400120124A10B5536800B9D4
:10A2300031B9184601F032FBBDE81040FFF7F0BE1F
:10A240001979082904D841F263413220FEF7B8FA9F
:10A2500019790C2902D941F26441F6E71B79126998
:10A2600003F180435268093BBDE8104052F82330A7
:10A27000184700BFD8400120054B1A6892F85420B7
:10A28000920703D05B68186801F0A0BA586970475C
:10A29000D840012070B5304D06466B681A79032A04
:10A2A00002D01A79042A09D118680AF0B0FA0446D3
:10A2B00038B941F29B313220FEF782FAFFF7DCFF1A
:10A2C000F5E72B6893F8543013B941F2A131F2E766
:10A2D00076B10CF0C3F930B16B681A79022A0ED846
:10A2E00041F22131E7E720460CF0D3F90028F3D101
:10A2F0006B681A79022A17D841F28131DBE71A79A3
:10A30000082A02D941F22231D5E71B7920462A6971
:10A3100003F180431269033B52F8233098470C281D
:10A3200012D941F2B431C6E71A79082A02D941F2AA
:10A330008231C0E71B792A6903F180435269033BEC
:10A3400052F823309847EAE72B69DB68BDE8704094
:10A3500053F82030184700BFD840012038B5FFF728
:10A360008BFF044620B940F21E513220FEF728FA36
:10A370000B4DFF202B6893F8201106F00FF92046B3
:10A3800006F030FB2B6893F82031033B012B94BF80
:10A390002820002006F088FB6B6807221A7138BD60
:10A3A000D840012010B5074C606801F047FAFFF76C
:10A3B00041FA20680021A0300BF0C1FDBDE810403B
:10A3C000FFF72EBED840012010B504468AB0FFF733
:10A3D00031FA237803F00F03072B23D16946204677
:10A3E0000AF0E7FA68460AF08AFB9DF80030CBB91C
:10A3F0009DF80130DB0715D50D4C019922689DF8B9
:10A40000110002F1780392F87E200BF0CCFD48B1E8
:10A4100020680121A0300BF092FDFF216846FFF774
:10A420005BFD08B9012000E002200AB010BD00BFAA
:10A43000D840012007292DE9F043064687B00F4692
:10A4400090464568654C23D11DBB002A48D1D4E90C
:10A45000001091F8543013F0030218BF012213F0DA
:10A460000403827103D033785A1E53425341C3719F
:10A4700091F894304BB12368D3F8900050300CF031
:10A48000B8FD10B9636801221A7207B0BDE8F08305
:10A4900035B32946707C0AF026F8072F814664D12F
:10A4A000637A63B158B1B8F1000F55D065680BF00D
:10A4B000AFFD636868715B7923720123A3726368DF
:10A4C0005879082858D17168707C0CF058F9626886
:10A4D000054671680532707C03F0E8F900285DD00C
:10A4E000236893F8540010F003000AD062683946DC
:10A4F00093F84C3030460195927900924246FFF72E
:10A50000B1FD00F0010062682368907193F8540077
:10A5100010F0040009D093F84D30394601953046CB
:10A52000D27900924246FFF79DFD2D4B00F00100CD
:10A5300065681B68E8711BB1414630469847287230
:10A54000726872B3717C236883F87E101168996712
:10A550009288A3F87C2024E0236893F82011012935
:10A56000A4D1284603F0DCF96072637A002BA6D0F0
:10A57000B9F1000FA3D099E704AA0DF10F0103F080
:10A58000B7F920B940F693313220FEF719F904A942
:10A590009DF80F000CF0F3F80546A1E76368D8803A
:10A5A00018726268137AB3B9D388003B18BF0123CD
:10A5B000B06800283FF469AF072F7FF466AF517988
:10A5C00008293FF462AF002B3FF45FAF03F0C6F9F8
:10A5D0000123E37259E70123EAE700BFD8400120D5
:10A5E000703001202DE9F74F2F4D934607468A46DC
:10A5F0002A688168807C92F84880019309F073FF93
:10A600006C7A88F001080646CCB192F854305B07AA
:10A610001FD592F84D30E3B192F84E40082C23D06C
:10A62000204603F01BF9002818BF8046002E36D0C4
:10A63000EB7A73B30BF0F6FC00230446EB72019B3C
:10A640008BF800408AF8006083F8008003B0BDE812
:10A65000F08F7B6813B16B685C79DFE76B68186813
:10A660000AF0F6F80028F6D1CEB195F80A90B9F1C3
:10A67000000F14D14946B86803F052F904466872D5
:10A680000028DCD00BF0C4FC08280AD06B68587195
:10A69000D5E72046B96803F01BFA0446CFE700244B
:10A6A000CDE74C46CBE700BFD84001202DE9F04371
:10A6B000A24E87B00446376897F857300BB9032588
:10A6C0007BE0D6F8048098F8063033B998F8072074
:10A6D0001AB998F80820002AF1D02578012D77D0F2
:10A6E000022D00F0D180002DE9D197F85420900779
:10A6F000E5D01BB998F80830002BE0D0637813F050
:10A70000100FC3F3001714BF0822012232EA03031B
:10A71000D5D10023A2688DF814308DF815308DF84E
:10A720001630002A4DD00DF1160305AA0DF11501C2
:10A730002046FFF757FF336893F841509DF81430D7
:10A74000002B00F0E28045F00205002F3BD00DF118
:10A7500017004FF00008FFF775F9D6E9003903F14B
:10A76000420705F0ABFE9DF917302A462146CDF889
:10A770000C800293337ACDE900033B46484601F052
:10A78000C1F800289BD0A1690120FFF719F9002822
:10A7900095D0336883F896806269002A70D051782A
:10A7A000C1F3031183F897101178527802F00F0269
:10A7B00041EA0222A3F898200225284607B0BDE806
:10A7C000F083FF25C1E729462046FFF751FB76E7D6
:10A7D00097F820216378022A19D103F01903192B65
:10A7E0007FF46DAF97F85430590714D4356895F855
:10A7F00054309A072BD1A1690120FFF7E1F8002816
:10A800003FF45DAF3368012283F89620C4E703F07C
:10A810001803182BE4E7616800232046B1FA81F1A0
:10A820001A464909FFF71CF800283FF448AFA3690E
:10A8300032689B7813F0E00304D192F84930002B82
:10A84000D4D13CE7402BD1D192F84A30F7E70DF153
:10A850001700FFF7F7F8776805F030FE0023FF22B6
:10A86000214603939DF917300293337ACDE9000313
:10A8700005F14203384601F045F80028BBD11EE738
:10A88000FF2283F8972097E797F854309B073FF40F
:10A8900016AF637803F01803182B7FF410AF0DF197
:10A8A0001700FFF7CFF805F009FE0023FF2221462D
:10A8B00003939DF917300293337ACDE9000307F132
:10A8C0004203404601F01EF800283FF4F8AEA169AB
:10A8D0000120FFF775F800283FF4F1AE336883F8E4
:10A8E000965062696AB15178C1F3031183F89710E9
:10A8F0001178527802F00F0241EA0222A3F8982060
:10A900005BE7FF2283F8972057E72046FEF79AFF80
:10A9100000287FF41AAF336893F85530023B012BBF
:10A920003FF6CDAE9DF81530002B3FF4C8AE9DF834
:10A930001430002B7FF4C3AEFE2506E7D84001207B
:10A9400030B505468BB0FEF775FF2C782846694672
:10A95000294D04F00F040AF02CF82B68072C16D1AF
:10A9600093F8201168460AF02DF800222146684627
:10A97000FFF760FD2B6893F82031022B32D017D8F7
:10A98000012B1AD041F21C213220FDF719FF93F858
:10A99000542012F0060FE8D093F8A420134493F843
:10A9A0002421012AE1D1962100200CF07AFBDCE77A
:10A9B000033B012BE6D8072C19E0062C02D00BD85C
:10A9C000022C0BD821466846FFF794F80446FFF79F
:10A9D0000BFB20460BB030BD072C09D005F020FF43
:10A9E0000324F4E7072CFBD19DF80030012BF7D1AD
:10A9F0006846FFF75BFEE9E7D840012038B5144D03
:10AA00002C6894F8483013B36FF00043D4E9201257
:10AA10009A4208BFB1F1FF3F19D00CF0F6FDD4E91E
:10AA20002023904271EB030311D3012003F01CF8A3
:10AA300068B12D6802F056FF04460CF0E6FD054BA8
:10AA4000A4FB03341B1844EB0104C5E9203438BDD2
:10AA5000D840012040420F0070B51E4D06462A68BE
:10AA600092F823115F294FEA511096BF1A4B002428
:10AA70001B1892F8210100F03F0098BFDC7805F028
:10AA80004DFE2B6893F9580005F01CFEFEB12B68B3
:10AA90002246996E012005F0AFFE2B68214693F8FF
:10AAA0009630022B0CBF4020FF2005F077FDFFF70A
:10AAB000E3FB2B68064693F8951019B90246204629
:10AAC000FFF7FCFA3046BDE8704005F08BBF224628
:10AAD0007321DFE7D8400120C0100700F7B52C4CE8
:10AAE0000746226892F823115F294FEA511097BF59
:10AAF000284B00251B18DD78936E13B10120FFF75A
:10AB0000ABFF2368D3F8880005F0A2FF236893F811
:10AB10005420910703D593F89610022905D05207C7
:10AB20000FD593F89620012A0BD1EA1E012A26D8C8
:10AB300093F85930012B14BF29460321002005F05A
:10AB4000FBFF266863689A361868D7B909F080FE5B
:10AB500063680746186809F081FE2168024630469E
:10AB600091F8963091F820110091394609F07CFF58
:10AB7000236883F820510023A37203B0F0BD294657
:10AB8000DCE709F077FE0146304609F062FFEFE7A7
:10AB9000D8400120C010070008B50120FFF79EFF34
:10ABA000024B06225B681A7108BD00BFD840012025
:10ABB00008B50020FFF792FF024B05225B681A716F
:10ABC00008BD00BFD840012010B50446FEF7B0FE16
:10ABD000237A032B0AD1194B1B68986E20B140F6DB
:10ABE0002F113220FDF7ECFDFFF736FF237A012B02
:10ABF00006D003D9023B012B12D910BDFEF7F6FD9A
:10AC00000E4C236893F9580005F05CFD2368002280
:10AC100083F89520FFF770FABDE81040FFF7EEBE0D
:10AC2000064B1B6893F895301BB9BDE81040FFF741
:10AC3000BFBFBDE81040FFF7AFBF00BFD840012045
:10AC400008B5044B586800F0F9FDFEF7F3FD01204C
:10AC500008BD00BFD84001202DE9F8436C4D00230A
:10AC6000064689466869D5F800800370437005F090
:10AC7000D3FE074628B9032003F0BEF93846BDE8E5
:10AC8000F883032E6C6942D1237823F00F0343F03D
:10AC9000030323700C23637008F1780168690BF0DB
:10ACA000B9FA98F87E1068690BF0C8FA0021686953
:10ACB0000CF003FA2B6893F8482003F1420493F850
:10ACC000418092B193F85420520740F1908093F85C
:10ACD0004D20002A00F08B8093F84E0002F032FFE6
:10ACE00000281CBF04464FF00108214668690BF09C
:10ACF0008AFA414668690BF094FA464BD3F80C3255
:10AD0000002B77D040F23F613220FDF759FD052E30
:10AD1000C2D12378222223F02F03627043EA491123
:10AD200041F00501217029680B6D1B6AC4F80F30D2
:10AD30000A6D936A180AE3741B0C2075637592F808
:10AD40007600138E00284CD04FF0640CB3FBFCF35C
:10AD5000DBB2A375D36A002846D06420B3FBF0F3BE
:10AD60009BB241F27070E3751B0A2376D369A3F599
:10AD70007A7C844595BF4FF47A7040F2E240B3FB91
:10AD8000F0F3B3FBF0F398BF03F550639BB2637627
:10AD90001B0AA376938CE3761B0A2377D38C637705
:10ADA0001B0AA377D2F88F30C4F81F3092F8933083
:10ADB00094F8242084F823300B6D22F01F0293F8BE
:10ADC0009A3003F01F03134384F8243002F000FC90
:10ADD00094F8243003F01F0343EA401384F824302E
:10ADE0005AE740F2E24CB1E740F2E240B6E76B6866
:10ADF000587973E7052E7FF441AF2B6821681A6DEF
:10AE0000C2F80A10A188D1811B6D83F8098035E74B
:10AE1000D840012000A0084010B500210320FFF712
:10AE20001BFF18B9BDE81040FFF7FAB8074C032123
:10AE300020680AF003F80028F4D00121084605F044
:10AE40007BFE636809221A7110BD00BFD840012043
:10AE50002DE9F043054691B00E46FEF7EBFC2B784A
:10AE60009B4C03F00F03072B07D00125606800F00F
:10AE700015FD284611B0BDE8F08306A9284609F063
:10AE800098FD206806A99A3009F00BFE23689DF80A
:10AE9000181093F89620914240F05981032E03D167
:10AEA00093F89720FF2A16D09DF81920150740F136
:10AEB0004E810B9A93F897105078B1EB101F40F029
:10AEC0004681127800F00F00B3F8983042EA002073
:10AED000984240F03C8106A832460721FFF7AAFAC3
:10AEE0006068C3881BB9037A002B00F0318100230E
:10AEF0008DF814308DF815308DF81630089B002B26
:10AF000047D00DF1160305AA0DF1150106A8FFF7AC
:10AF100069FB236893F841609DF814300BB146F04B
:10AF200002069DF818509DF81480012D9DF81570AB
:10AF30009DF816302FD0022D7FD0002D40F00781D4
:10AF4000236893F854309D0730D09DF81930980746
:10AF500071D5B8F1000F0BD106A8FEF773FC38B914
:10AF6000236893F85530023B012B1FD8F7B1FE261A
:10AF700063681B7A33B1574B1B681BB10D9808B13E
:10AF80000F999847314606A8FEF7A6FF70B1022533
:10AF90003FE0FF26C5E79DF81900226800F0090C84
:10AFA00092F89A10BCF1090F04D009B9012530E0DC
:10AFB0000007FBD592F85420500711D463689B79A1
:10AFC000002BF3D0236893F854309A07EED09DF805
:10AFD00019309B0716D4FF2106A8FEF749FFE5E7C5
:10AFE0006268D279002AE9D0424606A8FEF738FC0A
:10AFF0000028E3D02068A0300AF0C3FF0028DDD08D
:10B000000C2506E0B8F1000F06D0314606A8FEF781
:10B010002FFFFEF7E9FF2CE706A8FEF713FC002838
:10B02000F3D1236893F85530023B012BBED8002F93
:10B03000BCD0FE21D0E7FF269AE7226892F8542080
:10B040009107B3D0616889790029AFD09DF8195074
:10B0500005F009010929A9D1920705F0020568D573
:10B06000002D39D0B8F1000F2AD00DF11700FEF7EE
:10B07000E9FC00210320FFF7EFFD0546D4E9003885
:10B0800003F1420705F01AFA0123324606A9039399
:10B090009DF917300293237ACDE900033B464046E1
:10B0A00000F030FC002D81D000283FF47FAF2068F5
:10B0B000A0300AF066FF00283FF478AF0B25A8E720
:10B0C000002BAED006A8FEF7BDFB0028CDD1A8E727
:10B0D000D8400120F83001200DF11700FEF7B2FC36
:10B0E000294603200125FFF7B7FD0746D4E90039BB
:10B0F00003F1420805F0E2F99DF91730324606A93E
:10B1000003950293237ACDE900034346484600F0B5
:10B11000F9FB002F3FF47DAF00283FF47AAF2068A1
:10B12000A0300AF02EFF0028C8D1606800F086FB2E
:10B130006FE7002D3FF44FAFB8F1000F01D031465B
:10B140004AE706A8FEF77EFB0028F8D169E76068A9
:10B1500000F0A4FB2AE700BFF8B5184F0E46012106
:10B1600078610020FDF7B8FF054620B940F6870159
:10B170003220FDF725FB4FF4947200210CF0E9FB1F
:10B1800001210846FDF7A8FF044620B14FF4947250
:10B1900000210CF0DEFB3B6913B940F69101E7E7B3
:10B1A000304609F039FA284609F0B5FE24B12046A8
:10B1B000BDE8F84009F0AFBEF8BD00BFD84001209F
:10B1C000014B024A1A617047D8400120FC3001202F
:10B1D000036810B523B940F65E113220FDF7F0FA8E
:10B1E000044A13606C3353601369BDE810401B6858
:10B1F000184700BFD840012008B5044B586800F03C
:10B200004DFBBDE80840FEF70BBF00BFD840012052
:10B2100038B590F84030054613F0FD0F05F14201B6
:10B2200014BF0120002085F8410002F001FA95F8D2
:10B230004030023BDBB2012B94BF0123002385F891
:10B24000483016D802F04EFB04460CF0DEF9094BEC
:10B25000A4FB03341B184FF0000044EB0104C5E9C4
:10B26000203402F001FC20B940F602213220FDF723
:10B27000A7FA38BD40420F00014936300BF045BAFD
:10B280000B45050010B5084C0222636820681A714E
:10B2900000F0B0FC38B9206809F083FA2068BDE8F6
:10B2A000104009F097BF10BDD8400120013808B503
:10B2B000C0B20A4B41B1032801D8185C08BD40F266
:10B2C000B9113320FDF77CFA032802D8184400791D
:10B2D000F4E74FF450710620F4E700BFC6100700F2
:10B2E00008B508F085FE054AD2E84F3F0133DBB2CE
:10B2F000C2E8413F0029F7D108BD00BFF04001205E
:10B30000024BA0F108015868FFF7EABFF0400120A6
:10B310002DE9F84F0D461E4600213B4B934604682D
:10B3200001601A789DF828709DF82C809DF9309066
:10B330009DF834A032B9A4F108015868BDE8F84F6F
:10B34000FFF7CEBF1A2204F109000CF002FB012323
:10B35000A372BBF1060F4FD8DFE80BF00433394E70
:10B36000434E3D00E37A23F0130343F01303E372EB
:10B37000012304F10E0241462846237547F6FF7368
:10B3800084F81890E38204F10D0309F014FAE37ACB
:10B390005B0736D5BA1E04F11C03012A8BBFAA68CD
:10B3A00032681168E2618ABFE161B28892889A804E
:10B3B000E7760023237215492046BDE8F84F0BF0CD
:10B3C000A4B9E37A23F0150343F01503CFE7E37A3A
:10B3D00043F01003CBE7E37A23F0120343F01203A8
:10B3E000C5E7E27A4AF01A0A22F01B020AF01B0AA9
:10B3F00042EA0A02E272BBE74FF484613320FDF7B0
:10B40000DFF9FF23E376D4E7F040012011B4040014
:10B410002DE9F04F05468DB00C4600200121FDF7C7
:10B4200099FE064620B940F2C7113320FDF7C8F94E
:10B43000A83009F0F0FC18B196F85430042B2FD145
:10B44000304609F0E3F858BBB84C04F1080704F1A2
:10B450000C08AE6A9EB92846FFF752FF02238DF80A
:10B4600004608DF805309DF80430002063F3070078
:10B470009DF8053063F30F200DB0BDE8F08FA96A89
:10B480000B68B942AB624FF000030B704B708B70CE
:10B49000CB70DED04145DCD06068FFF721FFD8E7F4
:10B4A000AE6A36B3A24B9E4226D0043B9E4223D0C6
:10B4B00006F13B0A4FF0000802F03CF88146B8F173
:10B4C000000F40F02E8102A9504609F072FAB9F13E
:10B4D000000F16D004F10D00EF7A17F0100713D00B
:10B4E0009DF8187005993A4607F074FF4FF001086F
:10B4F00028E005F1330ADDE74FF001084FF0000ABC
:10B50000DAE704F11C00E7E7002EEFD09DF80830E1
:10B51000022BEBD0014695F83230E52250460BF075
:10B5200023F895F8323007460344504685F8323008
:10B530000BF012F895F83280A8EB000CDCF1000853
:10B5400048EB0C08B9F1000F2CD1042305F12301BD
:10B55000237007F11803AA7A5343E270221D0233C5
:10B56000637005F10B0353F8040B8B4242F8040B94
:10B57000F9D195F814B095F815A001F0FDFFC1F3CD
:10B58000402958464946FFF791FE6073BAF1000F13
:10B5900004D049465046FFF789FEA073E7762CE0B9
:10B5A000C8460027EB7AD80601D45B213DE759074E
:10B5B000AA7A95F80DE004F1060005F10E0C2FD5DE
:10B5C000E97EFE292CD11123E27084F805E0237076
:10B5D00013010233637001232371D5F80E30C4F8D0
:10B5E0000630BCF8043083802173EB69C4F80D3059
:10B5F0002B8CA4F811302B7EE3744C4F07F1080A12
:10B6000056453AD12379022605F1280066F3461300
:10B61000237109F0ECF82846FFF772FE04273FE09B
:10B6200007F10A030321E27053432170023384F8C7
:10B6300005E06370D5F80E30C4F80630BCF804306D
:10B640008380277327442B7E7B73EA7A12F00800ED
:10B6500002D004232371D0E702F00303032B01D1AE
:10B660002071CAE7520701D50123F3E7022BF1D07D
:10B670000BB92171C1E7A221D7E607F10C094E45AC
:10B6800015D105F1280009F0B2F86A7D6AB923796D
:10B69000042762F34613237102262846FFF730FE83
:10B6A0008DF804708DF80560DDE60027F4E77EB3C1
:10B6B000B8F1000F26D005F12808404609F097F8A8
:10B6C00031467868FFF70CFEAB6A0022534585F8D7
:10B6D000322097D04B450BD12379404662F3461375
:10B6E000237109F084F828460226FFF709FE95E742
:10B6F0009DF80830022B05D12379012623F0680339
:10B7000023718BE72379012666F34613237185E7BE
:10B71000EF7A17F01007C3D0237966F3461323712D
:10B72000E1E700287FF43CAF07460EE7F040012038
:10B73000FC400120343270B5054692B20C461E46DC
:10B7400008F01EFC25B1034A556014745674147039
:10B7500070BD00BFF040012010B5034C606808F0D8
:10B7600031FC237C237010BDF0400120014B587C3C
:10B77000704700BFF040012038B5134D686808F0ED
:10B7800027FC044620B940F247113320FDF718F892
:10B79000D5E84F3F013BDBB2C5E8413F0029F7D177
:10B7A00004F10803342218460CF0D3F847F6FF7270
:10B7B0000121E462E283FF22627584F82320E27CA7
:10B7C00061F34612E27438BDF040012038B5436A97
:10B7D000044693B90A4D686808F0FAFB606220B924
:10B7E0004FF4B0713320FCF7EBFFD5E84F3F013B3E
:10B7F000DBB2C5E8423F002AF7D1606A3B3038BD72
:10B80000F0400120036810B504465BB1596A49B1A4
:10B8100001F10802934204BF00230360064B5868FD
:10B82000FFF75EFD216831B1034B08395868FFF717
:10B8300057FD0023236010BDF040012038B5046897
:10B8400005469CB1134920460AF065FF124B0022C1
:10B850001A735A739A73DA73EFF3108272B6A16A8D
:10B860000C3399B9A362E36202B962B62C68616ACB
:10B8700049B101F108039C4203D0074B5868FFF718
:10B880002FFD0023636200232B6038BDE16A0B604B
:10B89000E9E700BF11B40400F040012070B506686C
:10B8A000044656B3716A154D41B101F108039E4239
:10B8B00002D06868FFF714FD0023736221684E7D93
:10B8C000B6B100232B726B72AB72EB72EFF3108286
:10B8D00072B6886A0A4B40B98B62CB6202B962B613
:10B8E0002046BDE87040FFF7A9BFC86A0360F4E7CF
:10B8F00008396868FFF7F4FC266070BDF04001204D
:10B90000F84001202DE9F0470468914606460D46AF
:10B910009A469DF820209DF82C8024B94FF4487158
:10B920003320FCF74DFF624F3B78BBB9B8F1020FF3
:10B930000BD007D9B8F1030F0AD033685BB90020E8
:10B94000BDE8F087FFF75EFFF7E7FFF777FFF4E763
:10B95000FFF7A4FFF1E740F23D31E1E7636A0BB97D
:10B960004021DDE783F81180CB687BB1097C238E11
:10B970000B4440F272618B4207DDFFF78FFF3368A3
:10B98000002BDCD040F25A31CAE723860123A37290
:10B990009DF928302376B8F1000F7BD122756B69B1
:10B9A0001BB15B78C3F30313A375EB6913B15B8819
:10B9B000A4F819302B78E27A581E4142414161F3D4
:10B9C00000029107E27267D4991E4A424A41E17A25
:10B9D00062F34101E17211F0020118BFB3FA83F181
:10B9E000E37A18BF490961F3C303E372AB681BB183
:10B9F000E37A43F00403E3722B6A13B193F9003046
:10BA0000E3756B6843B104F10D0304F10E029DF878
:10BA10002410284608F0CFFEAB688BB1A9F10201D3
:10BA200004F11C02012995BFDAF800301968E361BE
:10BA3000E16194BFBAF804309B88938084F81B902E
:10BA4000B8F1000F0DD00022636A1A705A709A7014
:10BA5000DA70A26A12BBA36216492046E3620AF0BA
:10BA60005AFEAA698AB15378927802F01F0253EA0B
:10BA700002230AD1A26A3B727B72BB72FB720E4B2D
:10BA80007AB9A362E36200233360636A63B940F268
:10BA9000971145E7627582E7012298E7E26A136031
:10BAA000DAE7E26A1360EDE700230120636247E70B
:10BAB000F040012011B40400F840012008B5431EF5
:10BAC000DBB2032B0AD80E4A0428D35C03F105032A
:10BAD000DBB207D1980100F5C87008BDFD21052033
:10BAE000FCF76EFE032803D1180100F5BF70F4E7E0
:10BAF00002280BBF981D581D8000C000EDE700BF55
:10BB0000D0100700014610B504460E4806F06EFD41
:10BB1000202884F8170111D021460A4806F066FD56
:10BB2000202884F81E010BD194F8170106F084FD3B
:10BB300020B940F28F212120FCF742FE002010BDE9
:10BB40000120FCE7434F0500014B1870704700BF10
:10BB5000113001207FB590F8143103F0FF0223B1BA
:10BB600040F2B7212120FCF72BFE0C78039214F051
:10BB7000010318BF8D68CDE9012218BF0195A60702
:10BB800007D504ADCE6805EB83050133DBB245F87C
:10BB90000C6C650707D504AD0E6905EB8305013311
:10BBA000DBB245F80C6C013B114D80F81D314B6840
:10BBB000C0F8C830C0F8F83040F27123A0F8FC306B
:10BBC000032315F8011B0C420BD004A900EB8206DD
:10BBD00001EB8201013251F80C1CD2B22B39C6F8AC
:10BBE000CC10013B13F0FF03EBD104B070BD00BFDC
:10BBF000D410070090F823215F2A4FEA52112DE953
:10BC0000F04F044689B000F2A980904B0B4493F8A2
:10BC10000790B9F1040F04D100234FF0030980F815
:10BC20001F3194F9213102F01F0294F822A1002B58
:10BC300094F821314AEA0222ACBF4FF01E084FF4BB
:10BC40009678DB0908FB02FA14BF4FF4967B4FF09D
:10BC50001E0B04F039FCAAEB000704F069FC94F811
:10BC6000212107EB0B03804612F0400F0193D044D3
:10BC700014BF32254FF4FA750AF092F9019B05447E
:10BC8000F62F03FB05F5724B05F5742505F23F25EC
:10BC9000B5FBF3F56DD994F8153103F0FF0A002BCD
:10BCA0005FD1484605F094F8684B4FF47A7203EB85
:10BCB0008903DF6807F52243B133B3FBF2F6AB36F5
:10BCC0005E4406EB45060644484605F081F80190BF
:10BCD000484605F085F849468346204608F017FF98
:10BCE00000F18C03019AA7EB0B0733448DF808A0F1
:10BCF0008DF811A09B1A4FF47A72B7FBF2F7DF1B95
:10BD0000D4E92C320397843B42F1FF3213EB080352
:10BD100042F100025B1B62F10002CDE906324D4B9D
:10BD20001878FE2803D094F854305A0701D405F04F
:10BD30008FFE8DF8100002A994F81701C4F8D8708E
:10BD4000C4F81861DDE90623C4E92E2306F0EEFCF1
:10BD500038B940F2B1612120FCF732FD4FF0000903
:10BD60005FE704F0B9FD06F03BFB012009B0BDE838
:10BD7000F08F48464FF47A7A05F02AF8334B03EBFC
:10BD80008903DF6807F2E736B6FBFAF620365E4431
:10BD900046442E440644484605F01AF801904846A9
:10BDA00005F01EF883464946204608F0B0FEA7EB92
:10BDB0000B0700F18C03019AD4F8D8903344B7FBF9
:10BDC000FAF79B1ADF1BB94513D3A8F1100302A899
:10BDD00002945D1B94F81C3103968DF818300223F1
:10BDE00005958DF8103000238DF81930FFF7F0F924
:10BDF000BBE7184B93F800A0BAF1FE0F03D094F8FC
:10BE000054305B0702D405F023FE8246A7EB0907F6
:10BE1000504606F0F3FE5146192F38BF19278742C6
:10BE200028BF0746384606F02FFF08B100209DE7DF
:10BE3000D4F8D8003844C4F8D8008238C4F8E000F8
:10BE400006F0AEFE0028C0D1F0E700BFD01007001A
:10BE500040420F001130012008B50B4B30B10128D2
:10BE60000DD040F612012120FCF7AAFC18601A68D8
:10BE700041F669039A4206D940F61B01F3E740F602
:10BE8000C4121A60F3E708BD044101202DE9F04F08
:10BE900004468FB01F469246BDF8606003910BF0D8
:10BEA000B4FB02902046049108F0ACFED4F8CC908C
:10BEB0008346002F00F03182002800F04E82204699
:10BEC00009F033F880F00107FFB2BAF1000F00F07B
:10BED000FB80029B13F5FA630593049B43F1000872
:10BEE00000F02AFB00F0E4FA054604F1E8002946D8
:10BEF000069000F0B9FAD4F8101111B1069808F0C4
:10BF0000E3FF1DB1B5F92420A4F80C21BBF1000F0B
:10BF100016D0D4F8F0B0B5B1A868059BD5E90021DA
:10BF2000CDE9003880185A4641F1000109F077F94F
:10BF30008345034608D240F262312120FCF740FCE1
:10BF4000D4F8C8B0E7E72B46069300F0FBFADDE92A
:10BF500005239D18D4F8C82002F2CF7048F10008DC
:10BF60000344B3FBF2F35343EB1A68F10002C4E954
:10BF70003A32002E40F09F804FF0FF326FF00043C6
:10BF8000C4E92A2301214FF0000B04EB0B030691B7
:10BF900093F8243118460593FFF790FD059B06465C
:10BFA000184604F01DFF00F522404FF47A738C36DA
:10BFB000B130B0FBF3F0D4E92A32064400205B1B19
:10BFC00062EB0802012B72F100010699C0F29C811C
:10BFD000994570EB020200DB994604EB8B0BDBF812
:10BFE000CC304B4594BFC4F8DC30C4F8DC9027BBA0
:10BFF00019B34900B4F90C0189B20AF099FBB4F8FD
:10C000000C21D4F810314FEAE07C121A12B2A4F8D5
:10C010000C2143B1A3F8E421D3E97021121841EBBC
:10C020000C01C3E97021D4E93A32451948EB0C08F8
:10C03000181842EB0C02C4E93A02BAF1000F05D01D
:10C04000D4E93A23C4E92C58C4E93023039B4FF0C8
:10C050000009C4F8D8602A462046C4E92E5883F85F
:10C060000990434608F0E4FD039B18725E60002FC0
:10C0700000F04E810123039A1370029B049AD4E9C5
:10C080002A01C31A61EB0201012B71F10002C0F217
:10C090003D81B548984279EB010200DB1846801BD0
:10C0A000039B1861D4F8DC00B04234BF00200120AB
:10C0B0000FB0BDE8F08F42F2107329464246E6FB0E
:10C0C0000312C4E92A125DE7002F47D06FF0004346
:10C0D000D4E92A129A4208BFB1F1FF3F00F00E8165
:10C0E00094F81C31234493F824613046FFF7E6FCB2
:10C0F0000546304604F074FE00F522434FF47A7092
:10C100008C35B1338DF820A0B3FBF0F31D44029BB6
:10C1100008A813F1AB02049B099543F10003CDE994
:10C120000C230223ADF8283006F09EFA10B940F235
:10C130008E4102E7D4E92A230C990127DDF810800B
:10C14000521A0D9963EB0103521B5146029D63F194
:10C150000003002BB8BFD146D34616E7D4E93A1204
:10C1600002980027D4F8C830451AC818B5FBF3F573
:10C1700003FB05F542F10008029A2D18A5EB020217
:10C1800048F10008AA2A0DD8D4F8B820521AB2FBF8
:10C19000F3F203FB0211691A5D19B1FBF3F148F1E7
:10C1A0000008F0E694F824618DF820703046FFF71F
:10C1B00085FC0546304604F013FE00F522434FF49B
:10C1C0007A708C35B133D4F8B8108DF82970B3FB80
:10C1D000F0F32B44D4F8C8500993D4E93A030A1A6F
:10C1E000B2FBF5F26A431218204643F10003CDE991
:10C1F0000C2308F01DFD29468DF8280008A809F039
:10C2000041FF0146DDE90C58BDE652F8041B01333D
:10C2100001F12B06BE429FBF2B3F0BF101067F1A97
:10C220005FFA86FBD9B28842EFD804EB0B0304EB2C
:10C230008B0993F82431D9F8CC201846069307923D
:10C24000FFF73CFC069B0646184604F0C9FD00F5C6
:10C2500022404FF47A73079AB130B0FBF3F007F144
:10C260008C031E443044824209D3D9F8CC30DF1B02
:10C27000002F26DA4FF489615FE62F4666E094F8D6
:10C280001D21D4F8C8305A4513D90BF10106AB4231
:10C290005FFA86FB0AD904EB8B03D3F8CC302B333F
:10C2A00004EB8B021D46D2F8CC70E1E740F222414C
:10C2B00043E6AB42F4D85B009D42F1D340F23F41EC
:10C2C0003BE615EB0805059B2046B94643F10008FF
:10C2D0000027D4E92C2308F064FCD4F8C830584374
:10C2E000D4E93A321B18204642F10002C4E93A323E
:10C2F0002A46434608F055FC014646E6029D0127C2
:10C30000DDF81080514627E7814666E64846C6E6D6
:10C31000039B1F70C3E90458C4E6BAF1000F7FF411
:10C32000D8AD0299D4F8C870D4E93A238D1AB5FB78
:10C33000F7F57D4315EB020801F1AB05A5EB080508
:10C3400043F10003AF42059397D8EF1B002394F805
:10C350001D0104F1CC029B4664E7BAF1000F3FF4E3
:10C36000FDAE5F46B5E500BF0040420FF7B50123C3
:10C370001D4E00273370CDE900776846FCF724FF97
:10C380000546C8B10023337003B0F0BD90F8E90151
:10C3900006F0E2FC94F8E90184F8E85106F04CF963
:10C3A00010B94FF4D7711BE0202304F5E07084F836
:10C3B000E93100F03DF8DEE7009B002BDDD093F87B
:10C3C000E821002AD9D018884FF6FF739842D9D0B7
:10C3D0002946FCF7BFFE04460028D7D140F2BF1122
:10C3E0003520FCF7EDF900BF08410120024B002287
:10C3F000C3E90022FFF7BABF08410120014B587082
:10C40000704700BF08410120024B0022C3E900220F
:10C41000704700BF1041012008B5044B186810B9DF
:10C42000FFF7F2FF08BD0C20FCE700BF1041012020
:10C4300010B5D0E906436BB1D0E902219C611144EB
:10C44000DA680A44DA6082693AB1D3610023C0E94C
:10C45000063310BD034A1460F5E7002BF6D0DA600E
:10C46000F4E700BF1041012008B5C16191B90F4A3E
:10C470001368836103B1D86110600023C269C3608F
:10C480009AB1D3687BB181688B420AD22D213720C3
:10C49000FCF796F98B6988618361002BEDD0D86138
:10C4A000EBE75B1AC3600023D36008BD1041012095
:10C4B000034B00201B6803B9704718469B69FAE7D5
:10C4C000104101200B4B002230B51B6804464FF091
:10C4D000FF35104623B911B9002808BF104630BDFA
:10C4E000DA68A24203D3AA423CBF154618461A4650
:10C4F0009B69EFE71041012038B5036A1BB18268E0
:10C500009C68A24203D2CD213720FCF759F9C169BA
:10C510008569D9619D6141B18B61996941B1CB61F7
:10C52000C1680A44121BDA6038BD02490B60F4E7A7
:10C53000D960F9E710410120014B01221A717047BF
:10C5400010410120014B00221A7170471041012057
:10C55000014B1879704700BF104101200138C0B26B
:10C56000032808B504D94FF450710620FCF728F9C8
:10C57000014B185C08BD00BF301107000138C0B284
:10C58000032808B504D94FF450710620FCF718F9B8
:10C59000014B185C08BD00BFB21107000138C0B2E2
:10C5A000032808B504D94FF450710620FCF708F9A8
:10C5B000014B185C08BD00BF281207000138C0B24B
:10C5C000032808B504D94FF450710620FCF7F8F899
:10C5D000014B185C08BD00BF0013070008B50346F7
:10C5E00010465A1E032A10D84A1E032A0DD8084A9C
:10C5F0000129517014BF0A210021107193709172AA
:10C600001946FCF797FF002008BD6FF01500FBE707
:10C6100006320120054A537A20B143F0040300207A
:10C620005372704703F0FB03F9E700BF06320120A5
:10C63000F8B58D1F40F67A4C0746BDF82460ADB2C0
:10C640001046BDF8182065453BD8841FA4B2644548
:10C650008CBF002401242546AFBB1D4F3F796FB12D
:10C660005CB96FF450654D19062D06D86FF450640F
:10C670000419062C8CBF002401242546FDB18142FB
:10C6800024D803FB0666B6F5FA7F1FDCA2F10A0385
:10C6900040F676449BB2A34218D808F006FE42F258
:10C6A000107300FB06F15A43B2EB410F0ED9BDF8EF
:10C6B0001C50BDF8200085428CBF0025012528466E
:10C6C000F8BD0024C7E797F87570C8E70025F6E7BE
:10C6D000D0410120012821D8022B0DD1A2F57A707A
:10C6E000104B98421CD8A1F57A70984218D88A420B
:10C6F0008CBF1220002070470B48824210D8012BBB
:10C7000007D140F252739A420AD9A1F6C410074BDE
:10C71000EBE7042BF9D140F6C313F4E7122070477E
:10C7200030207047A7F970028FFD7002CBF37002C2
:10C7300010B504460A4808F003F80A492046FFF7F6
:10C7400009FA204607F080FF38B12046FEF760FD69
:10C75000204607F0F2FF002010BD1220FCE700BFCA
:10C76000EC410120F44101202DE9FF41067880468B
:10C77000012E40F0988031460020FCF7EBFC054686
:10C7800020B940F626613920FCF71AF8B8F80430D1
:10C79000002B40F0828007F039FF00287FD195F808
:10C7A0001431002B7DD12846FFF7C2FF0446002834
:10C7B0006FD1584F31463046FCF7CCFC97F8381013
:10C7C000064619B110B940F64261DCE73A7F002312
:10C7D000CDE9023312F001031CBFF86A0290520740
:10C7E00041BF04AA02EB83037A6B43F8082C0029AB
:10C7F00045D096F81431002B41D0B8F80230002B08
:10C800003DD13B7F3046BA6A009302ABB97F07F057
:10C810002EFFA0B3304608F004FB06F1400380462B
:10C8200005F14002683653F8041BB34242F8041B7A
:10C83000F9D12846FFF77CFF024610B140F664614B
:10C84000A1E7B8F10C0F07D10146284608F0B5FC66
:10C85000F8B940F6686196E7B8F1000F02D040F6EB
:10C860006D6190E77B7F2846296D43F0040385F8CE
:10C87000543008F07EFC60B940F66F6183E7B8F889
:10C8800004202846B8F8021008F097FC002808BFDA
:10C890000724204604B0BDE8F0811124F9E73A24CA
:10C8A000F7E70C24F5E701210020FCF753FC0546CF
:10C8B00010B940F6826166E708F042FA04460028A3
:10C8C000E7D195F8543095F8A62022B195F8A72025
:10C8D000134385F8A600053B012BDAD82B6D13B95D
:10C8E00040F692614FE701210846FCF733FC2946E8
:10C8F0004FF49472064606F06DFD0423316D304608
:10C9000086F8543008F035FC0028C2D140F6976113
:10C9100039E700BFD0410120114BF7B59C7E064698
:10C92000DD7E9F8B14B900F02DFE0446A5B900F002
:10C9300029FE054614B9092003B0F0BD0028FAD03D
:10C94000304601A98DF804408DF80550ADF8067009
:10C9500009F0C9FB0020EFE7002CF1D1EBE700BFA5
:10C960009446012010B503210020FCF7F3FB044698
:10C9700070B90321FCF7B0FB044620B940F24D31F9
:10C980003920FBF71DFF034B93F960100AF00EF9F5
:10C99000204610BDD041012038B509F003FB002529
:10C9A00000F068FF234C00F0FBFD09F08CFE01F065
:10C9B000A1F901F0DFFB01F0D1F9012000F0B4FD95
:10C9C0001D4B1E4A29465D831A601B229D839A8057
:10C9D000F9229D771D761A4B22835868194A1B89C4
:10C9E00022601422E06104F12400238484F8615061
:10C9F000A4F85450A576A580A5750AF0AAFF0123D6
:10CA000042F2107204F13A0084F8565084F824304F
:10CA100084F83930C4E90A220AF009FB04F1440021
:10CA20000AF00FFB0022002384F87050C4E91A2397
:10CA300038BD00BFD04101209446012003021B00F5
:10CA4000B21107001B004801044B41F64C521B2158
:10CA50005A611974C3E90222FFF79EBF9446012070
:10CA600073B5394D0446AB6840F8343F07F0E9FC34
:10CA7000064600F081FD2B7C10F0200FE68784F83D
:10CA80003C30324B0EBF1B22AA8869881B6814BF3A
:10CA9000A4F85E10A4F85E20A4F860201BB194F9FD
:10CAA0007410208898472A490B79003B18BF01234E
:10CAB00084F87530274B1B6813B1083120889847DC
:10CAC00094F875302046002B41F64C5318BF4FF4B4
:10CAD0007A73E361FFF720FF064648B10221208800
:10CAE000FCF74EFB60B340F2D3513920FBF768FEF0
:10CAF00001236386184B1B6813B1014620889847B1
:10CB0000164B1B6813B1002120889847697804F1FF
:10CB10001400AB886A8801910333297803329BB2F1
:10CB2000009192B204F11801FCF786FB636913B916
:10CB30004FF4BE61D9E7A3691BB940F2F151D4E7C4
:10CB40000926304602B070BD9446012028310120EC
:10CB5000D0410120403101203C31012038310120F9
:10CB60002DE9F34105460E460AF061F8002800F071
:10CB7000AF8028460AF0ECF830B1B6F80130013B3E
:10CB80007F2B01D9122404E028460AF0E5F820B9E9
:10CB90000C24204602B0BDE8F081284607F09DFC39
:10CBA0000028F5D1284609F0EBFF80460028EFD198
:10CBB000284602F0B3FD0028E4D042F21073B6F824
:10CBC0000170F17828465F430AF0AEF8042130780E
:10CBD000FCF7C0FA044606213078FCF7BBFA002CBB
:10CBE00078D038B141F6F3113920FBF7E9FD04465E
:10CBF00090F8BD80414E3368002B6DD04034204604
:10CC00000AF003FA002867D020460AF0F2F900285B
:10CC100062D1B8F1000F08D0394B20461B68984705
:10CC2000002859D041F60721DEE7364942463368ED
:10CC300020464969984700284ED041F60C21D3E799
:10CC400028460AF085F840B902210DF10600FCF7EC
:10CC50000BFA064658B90D249BE728460AF08AF8D5
:10CC60000028F1D1284B1B79002BEDD18AE7002158
:10CC700000F0B2FFBDF806302846314633800AF096
:10CC800097F828460AF076F8A8B9296A28460AF0E3
:10CC90007BF801463046FFF7E3FE044600287FF4A8
:10CCA00078AF3A4631462846FCF792FC044620B15C
:10CCB00041F6382198E70121ECE7134BDB6D002B9F
:10CCC0003FF467AF024606F58D713046984760E73E
:10CCD00042245EE700288AD128460AF031F801464E
:10CCE0000028ADD13A462846FCF772FC04460028DD
:10CCF0003FF44FAF41F6152176E700BF34310120F4
:10CD00003031012094460120D0410120014B93F99C
:10CD100060007047D0410120B0F90020F8B514B28E
:10CD200092B202F5A0639BB2B3F5206F36D8B0F98A
:10CD300002301DB29BB203F5A06189B2B1F5206F3C
:10CD40002CD802F2F64140F2BE5089B2814227D877
:10CD500003F2F64189B2814222D8002C4FF00A003A
:10CD6000C4BF093214B2002DC8BF093394FBF0F4DC
:10CD7000C8BF1DB200F0C6FF0A2167B2064695FB88
:10CD8000F1F1384649B200F0AFFF074B1B684BB1D9
:10CD9000A01B40B208B198470020F8BD3020FCE746
:10CDA0001120FAE71846F8E72C310120034B5A8886
:10CDB00002801B7883700020704700BF94460120DA
:10CDC0002DE9F84303780446032B03D9122528469E
:10CDD000BDE8F8834378032BF8D8437E85780BB9F8
:10CDE000012DF3D115F0F80FF0D1A80751D5022D80
:10CDF000ECD1504B5B79002BE8D000F0C3FB35EA57
:10CE0000000340F0928094F8029019F0010506D0DA
:10CE100001232269A168E078FFF75CFC054619F060
:10CE2000020F07D002232269A168E078FFF752FCC5
:10CE30000543EDB219F0040F07D004232269A1685D
:10CE4000E078FFF747FC0543EDB2002DBFD1B9F103
:10CE5000050F0FD194F804900423E16862694846F5
:10CE6000FFF738FC00285ED1E3784B455DD1A3681D
:10CE700099425AD1237E013B062BA7D801210020DD
:10CE8000FCF768F9814638B940F627513920FBF79D
:10CE900097FC69079AD0B0E7A83007F0BCFF18B13B
:10CEA00099F854309A0742D194F819C0E278BCF14D
:10CEB000000CA178A06818BF4FF0010C012AB4F84B
:10CEC000009014BFB2FA82F2022294F818E018BF60
:10CED0005209CB071ED54B0727690BD56669BB19CD
:10CEE000984207D243089F4228BF1F46C31B9E4259
:10CEF00028BF1E460F4B19775A77A3F81E9083F868
:10CF000020E083F821C083F82410C3E90A07C3E9AD
:10CF10000C865CE7022902D1D4F81080EAE74B07BF
:10CF200048BF2669E6E7054651E711254FE70C257E
:10CF30004DE700BFD04101202DE9F041044688B003
:10CF4000002000F0F1FA23788DF8043063788DF832
:10CF50000530A37803F001058DF806305B0748BF64
:10CF6000013500F00FFB9DF8063083434AD10DF1E7
:10CF7000070003A904F1030840F2712E0E4684460F
:10CF8000DAB2954219D8214B93F8202093F8393022
:10CF90008DF81C20A2788DF81D3032F0050333D1B6
:10CFA00012F0050F30D01A4CDAB2954217D801A80A
:10CFB000FFF706FF08B0BDE8F08103EB8302013301
:10CFC00018F8027022440CF8017B9788D2880EFB77
:10CFD00007F70EFB02F246F8047B7260D0E710F808
:10CFE000012B012A10D88A680E46A2F6C412A2426A
:10CFF00006D8326804310133A2F6C412A242D3D952
:10D000003020D7E71120D5E71220D3E7D041012007
:10D01000CBF3700200B589B0437940F271218DF8ED
:10D02000043083798DF8053001238DF806300378BC
:10D030008DF80730B0F801304B430393B0F803206C
:10D040004A430D4991F820100592A2F6C4128DF8BA
:10D050001C1000218DF81D1008498A4209D8A3F63A
:10D06000C4138B4205D801A8FFF7AAFE09B05DF8EA
:10D0700004FB3020FAE700BFD04101203C369C0081
:10D080002DE9FF41077804460E46EF2F04D91226FA
:10D09000304604B0BDE8F081B0F80130ADF80C3096
:10D0A0009DF90C209DF80C30002AF0DB9DF80D2036
:10D0B0009507ECD1D80660D4990603F0030259D540
:10D0C000002AE4D11D0703D503F06703012BDED14D
:10D0D0006378180711D42179E278E07942EA0122D5
:10D0E000617942EA0142A17941EA0021207A41EACC
:10D0F00000418A42CBD81F2AC9D9627A013A062A4E
:10D10000C5D8A27A032AC2D813F0040102D1023A88
:10D11000012A03D8E27A012AB9D811B9A27C032ADC
:10D12000B5D813F01001227D37D0012AAFD1237E6C
:10D13000012BACD8002940D06378D90703D500F083
:10D140009FF9002840D06378227D03F01803082B54
:10D150004AD1022A38D11FFA87F803214046FBF74B
:10D16000F9FF0546002845D007F0B7F900284DD053
:10D170000C268DE7032AA5D189E713F0600F86D12D
:10D1800003F00F0203F00703052BA1D0931E012B20
:10D190009ED9002A7FF47BAF9AE7022A04D103F0DC
:10D1A0006F03092B7FF473AFA37D013B022B3FF686
:10D1B0006EAFE37D0F2BBAD969E700F0E3F9820780
:10D1C00007D4237D022B01D1112661E7A37D022B19
:10D1D000FAD000F0D7F94307AED4237D032BF3D068
:10D1E000A37D032BA8D1EFE7022AB4D0237F002B25
:10D1F000B1D0E9E703214046FBF76EFF0546002862
:10D2000043D0234B93F9601009F0D0FC002138463D
:10D2100009F0DBFE28BB284609F08FFD214630705F
:10D22000E074284602F0D2FAE37E0646002B3FF473
:10D230002FAF00287FF42CAF0246E96C6846FCF75C
:10D24000BDF83246E86C012106F00EFFE96C684635
:10D250000422FCF7B3F832463146E86C06F004FFCE
:10D2600016E7403009F0D1FE0028D4D0637813F0DF
:10D27000330F7FF40CAFA77D2846296A09F084FD9F
:10D28000FFF77CF98742C6D072E7072600E700BFA8
:10D29000D041012030B502798BB00346042A5CD816
:10D2A0004488B4F5804F58D82D4800211044ADF87B
:10D2B00000108DF80810827C457B42F010028DF83A
:10D2C0001D1042EA4502C57D007F42EA850242EA1E
:10D2D000C00202F01F028DF80020BDF80020ADF85A
:10D2E00009201A888DF80E40240A8DF80B20120AA6
:10D2F0008DF80D108DF810108DF80C208DF80F4062
:10D300005A7BD3F807008DF811205A79059002A8AE
:10D310008DF812209A798DF81320B3F80B209B7B9F
:10D32000ADF818208DF81A307F238DF81B300123BB
:10D330008DF81C308DF81E308DF81F108DF82010E0
:10D340008DF823108DF824108DF821108DF82210FF
:10D350006946FFF795FE0BB030BD1220FBE700BF1A
:10D36000B21107000278034672B1427862B1428876
:10D370001A2A09D982881A2A06D90068034A106035
:10D3800000209B88938070471220704794460120AC
:10D3900002680020014B9A60704700BF944601204C
:10D3A0000378FF2B16D14378FF2B13D18378FF2B03
:10D3B00010D1C378FF2B0DD1037923F0E0021F2A8F
:10D3C00008D113F0E00F05D05B09034A002082F872
:10D3D0002030704712207047D04101200378012B84
:10D3E0009DBF03F00103034A0020122098BF82F87A
:10D3F00039307047D0410120014B1876002070472A
:10D40000D0410120014B587600207047D0410120C7
:10D41000024B1B6803B118471120704724310120CB
:10D4200008B502F077F8FCF7C9F90248BDE80840F2
:10D4300002F05AB84442012008B5FEF7E5FFFEF7B6
:10D44000D5FFFFF763FC01460248BDE80840FDF741
:10D4500083BE00BF4442012010B5064C064904F5C6
:10D46000037008F034FD04F504700449BDE8104071
:10D4700008F02DBD44420120443101204C310120EF
:10D48000014B93F80A0270474442012010B5064C44
:10D49000064904F5037008F01AFD04F50470044908
:10D4A000BDE8104008F013BD444201205431012072
:10D4B0005C31012038B5094C0D4600F055FDD4F81B
:10D4C0000C02C4F8045108F0FAFCFFF7BDFA00F0B2
:10D4D000E1FD012384F8183238BD00BF4442012029
:10D4E000014B93F8180270474442012010B50D4CCF
:10D4F000D4F8100208F0E3FCD4F8140208F0DFFCC2
:10D50000FFF74AFA202000F029F82F2000F026F833
:10D51000262000F023F8292000F020F8002384F8CA
:10D52000183210BD44420120014B83F819027047A4
:10D5300044420120014B93F81902704744420120F4
:10D54000C2080549012300F0070003FA00F08B5CD4
:10D5500018438854704700BF18300120C20805499D
:10D5600000F0070001238340885C20EA0300885410
:10D57000704700BF18300120014BD3E9000170470C
:10D5800018300120054B1868C0F3C022C0F30020FA
:10D59000400040EA820040F001007047183001204E
:10D5A00008B504F037F90023074A32F82310814206
:10D5B00005D302EB83039B78044A137008BD013343
:10D5C0000C2BF2D10023F7E7F81107005E4401208D
:10D5D000024B1878072828BF072070475E440120B7
:10D5E000064BB3F85220824201BF002283F850203C
:10D5F0004FF6FF72A3F85220704700BF604401202D
:10D6000050B90A4A0120134603F8010B0868C2F812
:10D6100001008A889A807047012805D1034B0A6867
:10D62000D8719A608A889A81704700BFB8440120F7
:10D6300048B90A4B187880B1D3F80120B3F8053007
:10D640000A608B807047012806D1044BD87920B13D
:10D650009A689B890A60F4E700207047B84401206B
:10D6600020B9054B187800F00100704701280ABF67
:10D67000014B0020D879F6E7B8440120F7B58B8834
:10D6800000228DF80600ADF8043008680B4B8DF8C9
:10D69000072001461C7803F5AC73019DD0B284428B
:10D6A00001D8082007E0D3E9007601320833AE4202
:10D6B00008BF8F42F2D103B0F0BD00BFC8440120C3
:10D6C000084B0146002230B55C7803F58173D0B277
:10D6D000844201D8082004E013F8015B01328D4236
:10D6E000F5D130BDC8440120F0B5254D89B095F87D
:10D6F000984105F299116846224605F06BFE2146D5
:10D70000684608F06EFC0446B8B300EB400102A87E
:10D71000C9B2FBF789FA601E95F8A1610124C0B275
:10D7200095F8982105E0731CB3FBF2F102FB11336D
:10D73000DEB206F120030DEB030111F8203C002BB3
:10D74000F1D100EB400201F8204C06EB46032032F9
:10D750002B446A4412F8187C83F8A27112F8177CE3
:10D7600012F8162C83F8A37183F8A4210138AB19A1
:10D77000C0B283F89941FF28D2D109B0F0BD00BFF3
:10D78000C844012070B5064688B00C46002A4FD028
:10D790002A4A92F8A131D01890F8991121B94FF482
:10D7A00080712820FBF70CF803EB4301013311448F
:10D7B00091F8A251E57091F8A35191F8A411257147
:10D7C0006171002180F8991192F89811B3FBF1F082
:10D7D00001FB103382F8A13192F8C23123B9184904
:10D7E00002F5DD7008F094FF65790D22002168468E
:10D7F00005F03F0545F0400565710AF0AAF8E378A9
:10D8000004AA69468DF80F30304623798DF80D5003
:10D810008DF80E30042309F0D4FF9DF81F302370DB
:10D820009DF81E3063709DF81D30A37008B070BD68
:10D8300003216018FBF7F8F9D6E700BFC8440120C0
:10D84000E9D60400044B5A78824286BF1B1893F82D
:10D850004A010020704700BFC8440120044B5A7899
:10D86000824286BF1B1893F842010020704700BF18
:10D87000C8440120064B00224FF461711A8083F8DE
:10D88000C32183F8C421A3F8C61183F8C2217047CD
:10D89000C8440120014B83F8C4017047C8440120EB
:10D8A000014B93F8C4017047C844012010B51446D9
:10D8B000FFF7E4FE082803D1012000F0010010BDAD
:10D8C000FFF7FEFE064B5A788242F5D904B120706C
:10D8D000184490F83A31012BEED090F84A01ECE769
:10D8E000C8440120014BB3F8C6017047C844012069
:10D8F0000A4B30B55C7884420ED9184490F8020186
:10D900002B3003EBC004A5790D7053F83000106084
:10D910000120A388938030BD0020FCE7C84401208B
:10D9200070B506460D4603F0EDF802F011FA0A4B09
:10D9300093F8C3415CB1597859B1981C823332468F
:10D94000002D08BF184602F0A9F902F033FA20466C
:10D9500070BD0C46FBE700BFC844012008B5064B6C
:10D96000024603EB0113012103F1820002F096F954
:10D97000BDE8084002F01EBAC8440120024607482C
:10D9800010B590F8C34124B1417821B1023002F0C2
:10D9900085F9204610BD0C46FBE700BFC8440120B6
:10D9A0002DE9F74F2F4C9A4680468946637883428B
:10D9B00056D9231893F8425185F00105F9B193F82F
:10D9C0004A31E3B945F002070135BAF1000F18D129
:10D9D000FA070AD5062104EB0810524601FB08415C
:10D9E000823001F58571FFF7CDFEBB0734D504EB1E
:10D9F0000810524649460230FFF7C4FE2CE02F467D
:10DA0000E3E794F8A1614FF0010B002DE0D0A319DA
:10DA100093F89911019399B90092DAB100F00AFBD9
:10DA2000019B06EB4601009A4FEA102C83F899B14E
:10DA3000214481F8A201000C81F8A3C181F8A4015E
:10DA4000013694F89831013DB6FBF3F103FB116602
:10DA5000F6B2DAE747F00407384603B0BDE8F08FC6
:10DA60000027F9E7C8440120F8B50646174C48B32B
:10DA7000617804F5A17008F0B4FA94F8985107465B
:10DA800004F29910294608F0ACFA2D1AEDB2AF4213
:10DA90001AD8002506270FE0E21892F8422152B961
:10DAA00007FB034104EB0313324601F5857103F1D3
:10DAB0008200FFF767FE01356278EBB29A42EBD83D
:10DAC0000120F8BD0546E5E70020FAE7C84401203B
:10DAD000F0B51B4E89B007460D46737883422CD9AA
:10DAE000331893F8424144BB0D222146684609F0A1
:10DAF00030FFEB7806EB071004AA8DF80F3069466B
:10DB00002B7982308DF80E306B798DF80D3004232F
:10DB100009F057FE2A789DF81F309A420AD16A7898
:10DB20009DF81E309A4205D1AC789DF81D00231A4D
:10DB30005C425C41204609B0F0BD0020FBE700BF1D
:10DB4000C8440120074B5A78824209D91A1892F822
:10DB500042212AB9062202FB003000F58570704789
:10DB600000207047C8440120064B5A78824281BF8A
:10DB70001B1893F83A01B0FA80F0400998BF0020D2
:10DB8000704700BFC844012030B5002442F2107530
:10DB9000A0F84040B0F844404C43B4FBF2F4A0F885
:10DBA0004440541E05FB0343B3FBF2F3A0F842309C
:10DBB000084BB3FBF2F30133A0F84830838F05FB29
:10DBC0000344436B5943B4FBF2F4B1FBF2F28463B8
:10DBD000426330BD005A620270B504460D4651BB27
:10DBE0004FF4347209F0B5FE012384F8DE5084F856
:10DBF0008E306FF0360384F8D930042384F8DA309D
:10DC00006FF03B0384F8DB306F2384F8DC306FF077
:10DC10003C0384F8DD30062384F8DF302B2384F8BE
:10DC2000D830FE2384F80E317F2384F885302023FA
:10DC300084F81C3270BD012917D10023A0F8DC3113
:10DC400080F8D3310D4BC26913441146B3FBF2F394
:10DC5000C0F8B03040F6B833A0F8B430C38C04F14B
:10DC60007800BDE87040FFF78FBF0229E2D1B0F81D
:10DC7000A632D0F8A022C169F1E700BF7FC3C90175
:10DC8000074B93F900301844142804DC10F17F0F7F
:10DC900003DB40B27047142070476FF07E0070477E
:10DCA000904601207F2307B50DF107008DF807305E
